{
  "contractName": "EtherFlow",
  "abi": [
    {
      "constant": true,
      "inputs": [
        {
          "name": "",
          "type": "uint256"
        }
      ],
      "name": "chosenWordsmith",
      "outputs": [
        {
          "name": "",
          "type": "address"
        }
      ],
      "payable": false,
      "stateMutability": "view",
      "type": "function"
    },
    {
      "constant": true,
      "inputs": [
        {
          "name": "",
          "type": "uint256"
        }
      ],
      "name": "requestArray",
      "outputs": [
        {
          "name": "question",
          "type": "string"
        },
        {
          "name": "reward",
          "type": "uint256"
        },
        {
          "name": "requestor",
          "type": "address"
        },
        {
          "name": "requestCount",
          "type": "uint256"
        }
      ],
      "payable": false,
      "stateMutability": "view",
      "type": "function"
    },
    {
      "constant": false,
      "inputs": [],
      "name": "renounceOwnership",
      "outputs": [],
      "payable": false,
      "stateMutability": "nonpayable",
      "type": "function"
    },
    {
      "constant": false,
      "inputs": [],
      "name": "destroy",
      "outputs": [],
      "payable": false,
      "stateMutability": "nonpayable",
      "type": "function"
    },
    {
      "constant": true,
      "inputs": [],
      "name": "owner",
      "outputs": [
        {
          "name": "",
          "type": "address"
        }
      ],
      "payable": false,
      "stateMutability": "view",
      "type": "function"
    },
    {
      "constant": true,
      "inputs": [
        {
          "name": "",
          "type": "uint256"
        }
      ],
      "name": "flowArray",
      "outputs": [
        {
          "name": "flow",
          "type": "string"
        },
        {
          "name": "wordsmith",
          "type": "address"
        },
        {
          "name": "requestCount",
          "type": "uint256"
        },
        {
          "name": "flowCount",
          "type": "uint256"
        }
      ],
      "payable": false,
      "stateMutability": "view",
      "type": "function"
    },
    {
      "constant": false,
      "inputs": [
        {
          "name": "_newOwner",
          "type": "address"
        }
      ],
      "name": "transferOwnership",
      "outputs": [],
      "payable": false,
      "stateMutability": "nonpayable",
      "type": "function"
    },
    {
      "constant": false,
      "inputs": [
        {
          "name": "_recipient",
          "type": "address"
        }
      ],
      "name": "destroyAndSend",
      "outputs": [],
      "payable": false,
      "stateMutability": "nonpayable",
      "type": "function"
    },
    {
      "anonymous": false,
      "inputs": [
        {
          "indexed": false,
          "name": "reward",
          "type": "uint256"
        }
      ],
      "name": "LogFlowRequested",
      "type": "event"
    },
    {
      "anonymous": false,
      "inputs": [
        {
          "indexed": false,
          "name": "requestCount",
          "type": "uint256"
        }
      ],
      "name": "LogFlowSubmitted",
      "type": "event"
    },
    {
      "anonymous": false,
      "inputs": [
        {
          "indexed": false,
          "name": "chosenWordsmithAddress",
          "type": "address"
        }
      ],
      "name": "LogWordsmithChosen",
      "type": "event"
    },
    {
      "anonymous": false,
      "inputs": [
        {
          "indexed": false,
          "name": "",
          "type": "uint256"
        }
      ],
      "name": "LogRewardIncreased",
      "type": "event"
    },
    {
      "anonymous": false,
      "inputs": [
        {
          "indexed": true,
          "name": "previousOwner",
          "type": "address"
        }
      ],
      "name": "OwnershipRenounced",
      "type": "event"
    },
    {
      "anonymous": false,
      "inputs": [
        {
          "indexed": true,
          "name": "previousOwner",
          "type": "address"
        },
        {
          "indexed": true,
          "name": "newOwner",
          "type": "address"
        }
      ],
      "name": "OwnershipTransferred",
      "type": "event"
    },
    {
      "constant": false,
      "inputs": [
        {
          "name": "_question",
          "type": "string"
        }
      ],
      "name": "newFlowRequest",
      "outputs": [],
      "payable": true,
      "stateMutability": "payable",
      "type": "function"
    },
    {
      "constant": false,
      "inputs": [
        {
          "name": "_flow",
          "type": "string"
        },
        {
          "name": "_requestCount",
          "type": "uint256"
        }
      ],
      "name": "postNewFlow",
      "outputs": [
        {
          "name": "",
          "type": "bool"
        }
      ],
      "payable": false,
      "stateMutability": "nonpayable",
      "type": "function"
    },
    {
      "constant": false,
      "inputs": [
        {
          "name": "_flowCount",
          "type": "uint256"
        },
        {
          "name": "_requestCount",
          "type": "uint256"
        }
      ],
      "name": "selectWordsmith",
      "outputs": [],
      "payable": false,
      "stateMutability": "nonpayable",
      "type": "function"
    },
    {
      "constant": false,
      "inputs": [
        {
          "name": "_requestCount",
          "type": "uint256"
        }
      ],
      "name": "claimReward",
      "outputs": [],
      "payable": false,
      "stateMutability": "nonpayable",
      "type": "function"
    },
    {
      "constant": false,
      "inputs": [
        {
          "name": "_requestCount",
          "type": "uint256"
        }
      ],
      "name": "boostReward",
      "outputs": [],
      "payable": true,
      "stateMutability": "payable",
      "type": "function"
    },
    {
      "constant": true,
      "inputs": [
        {
          "name": "_requestCount",
          "type": "uint256"
        }
      ],
      "name": "seeRewardAmount",
      "outputs": [
        {
          "name": "rewardAmount",
          "type": "uint256"
        }
      ],
      "payable": false,
      "stateMutability": "view",
      "type": "function"
    },
    {
      "constant": true,
      "inputs": [
        {
          "name": "_requestCount",
          "type": "uint256"
        }
      ],
      "name": "getQuestion",
      "outputs": [
        {
          "name": "question",
          "type": "string"
        }
      ],
      "payable": false,
      "stateMutability": "view",
      "type": "function"
    },
    {
      "constant": true,
      "inputs": [
        {
          "name": "_requestCount",
          "type": "uint256"
        }
      ],
      "name": "getRequestor",
      "outputs": [
        {
          "name": "requestorAddress",
          "type": "address"
        }
      ],
      "payable": false,
      "stateMutability": "view",
      "type": "function"
    },
    {
      "constant": true,
      "inputs": [
        {
          "name": "_requestCount",
          "type": "uint256"
        }
      ],
      "name": "getChosenWordsmith",
      "outputs": [
        {
          "name": "chosenWordsmithAddress",
          "type": "address"
        }
      ],
      "payable": false,
      "stateMutability": "view",
      "type": "function"
    },
    {
      "constant": true,
      "inputs": [
        {
          "name": "_flowCount",
          "type": "uint256"
        }
      ],
      "name": "getFlowArray",
      "outputs": [
        {
          "name": "flowPoem",
          "type": "string"
        },
        {
          "name": "wordsmith",
          "type": "address"
        }
      ],
      "payable": false,
      "stateMutability": "view",
      "type": "function"
    },
    {
      "constant": true,
      "inputs": [],
      "name": "getLength",
      "outputs": [
        {
          "name": "length",
          "type": "uint256"
        }
      ],
      "payable": false,
      "stateMutability": "view",
      "type": "function"
    },
    {
      "constant": false,
      "inputs": [
        {
          "name": "_requestCount",
          "type": "uint256"
        }
      ],
      "name": "stopRewardMovements",
      "outputs": [],
      "payable": false,
      "stateMutability": "nonpayable",
      "type": "function"
    }
  ],
  "bytecode": "0x60806040526000600155600060025560006003556000600760006101000a81548160ff021916908315150217905550336000806101000a81548173ffffffffffffffffffffffffffffffffffffffff021916908373ffffffffffffffffffffffffffffffffffffffff160217905550611a238061007d6000396000f300608060405260043610610112576000357c0100000000000000000000000000000000000000000000000000000000900463ffffffff168063083964611461011757806312084509146101735780631710e73b146101e05780634195fbf3146102215780634607ecc6146102415780634bb55bbe1461032857806350bc12ab146103955780635ff270ed1461046e578063715018a6146104db57806383197ef0146104f25780638da5cb5b146105095780639ef753d514610560578063ae169a5014610597578063b9923b7d146105c4578063be1c766b146106ab578063c8607797146106d6578063db88176f14610703578063e6b8307f146107a9578063f2fde38b14610834578063f5074f4114610877575b600080fd5b610171600480360381019080803590602001908201803590602001908080601f01602080910402602001604051908101604052809392919081815260200183838082843782019150505050505091929192905050506108ba565b005b34801561017f57600080fd5b5061019e60048036038101908080359060200190929190505050610a25565b604051808273ffffffffffffffffffffffffffffffffffffffff1673ffffffffffffffffffffffffffffffffffffffff16815260200191505060405180910390f35b3480156101ec57600080fd5b5061020b60048036038101908080359060200190929190505050610a58565b6040518082815260200191505060405180910390f35b61023f60048036038101908080359060200190929190505050610a88565b005b34801561024d57600080fd5b5061026c60048036038101908080359060200190929190505050610b70565b60405180806020018581526020018473ffffffffffffffffffffffffffffffffffffffff1673ffffffffffffffffffffffffffffffffffffffff168152602001838152602001828103825286818151815260200191508051906020019080838360005b838110156102ea5780820151818401526020810190506102cf565b50505050905090810190601f1680156103175780820380516001836020036101000a031916815260200191505b509550505050505060405180910390f35b34801561033457600080fd5b5061035360048036038101908080359060200190929190505050610c67565b604051808273ffffffffffffffffffffffffffffffffffffffff1673ffffffffffffffffffffffffffffffffffffffff16815260200191505060405180910390f35b3480156103a157600080fd5b506103c060048036038101908080359060200190929190505050610ca7565b60405180806020018373ffffffffffffffffffffffffffffffffffffffff1673ffffffffffffffffffffffffffffffffffffffff168152602001828103825284818151815260200191508051906020019080838360005b83811015610432578082015181840152602081019050610417565b50505050905090810190601f16801561045f5780820380516001836020036101000a031916815260200191505b50935050505060405180910390f35b34801561047a57600080fd5b5061049960048036038101908080359060200190929190505050610dba565b604051808273ffffffffffffffffffffffffffffffffffffffff1673ffffffffffffffffffffffffffffffffffffffff16815260200191505060405180910390f35b3480156104e757600080fd5b506104f0610e0a565b005b3480156104fe57600080fd5b50610507610f0c565b005b34801561051557600080fd5b5061051e610fa1565b604051808273ffffffffffffffffffffffffffffffffffffffff1673ffffffffffffffffffffffffffffffffffffffff16815260200191505060405180910390f35b34801561056c57600080fd5b506105956004803603810190808035906020019092919080359060200190929190505050610fc6565b005b3480156105a357600080fd5b506105c2600480360381019080803590602001909291905050506111fe565b005b3480156105d057600080fd5b506105ef60048036038101908080359060200190929190505050611387565b60405180806020018573ffffffffffffffffffffffffffffffffffffffff1673ffffffffffffffffffffffffffffffffffffffff168152602001848152602001838152602001828103825286818151815260200191508051906020019080838360005b8381101561066d578082015181840152602081019050610652565b50505050905090810190601f16801561069a5780820380516001836020036101000a031916815260200191505b509550505050505060405180910390f35b3480156106b757600080fd5b506106c061147e565b6040518082815260200191505060405180910390f35b3480156106e257600080fd5b506107016004803603810190808035906020019092919050505061148e565b005b34801561070f57600080fd5b5061072e60048036038101908080359060200190929190505050611538565b6040518080602001828103825283818151815260200191508051906020019080838360005b8381101561076e578082015181840152602081019050610753565b50505050905090810190601f16801561079b5780820380516001836020036101000a031916815260200191505b509250505060405180910390f35b3480156107b557600080fd5b5061081a600480360381019080803590602001908201803590602001908080601f016020809104026020016040519081016040528093929190818152602001838380828437820191505050505050919291929080359060200190929190505050611600565b604051808215151515815260200191505060405180910390f35b34801561084057600080fd5b50610875600480360381019080803573ffffffffffffffffffffffffffffffffffffffff16906020019092919050505061177d565b005b34801561088357600080fd5b506108b8600480360381019080803573ffffffffffffffffffffffffffffffffffffffff1690602001909291905050506117e4565b005b600080341115156108ca57600080fd5b3490507fd9f511a93aa79cef511154679922b39d3ca84a62f84837ae6d90151033fb337e816040518082815260200191505060405180910390a1600180540160018190555060046080604051908101604052808481526020018381526020013373ffffffffffffffffffffffffffffffffffffffff168152602001600154815250908060018154018082558091505090600182039060005260206000209060040201600090919290919091506000820151816000019080519060200190610992929190611952565b506020820151816001015560408201518160020160006101000a81548173ffffffffffffffffffffffffffffffffffffffff021916908373ffffffffffffffffffffffffffffffffffffffff160217905550606082015181600301555050503460046001805403815481101515610a0557fe5b90600052602060002090600402016001015410151515610a2157fe5b5050565b60066020528060005260406000206000915054906101000a900473ffffffffffffffffffffffffffffffffffffffff1681565b6000600460018303815481101515610a6c57fe5b9060005260206000209060040201600101549050809050919050565b6000600760009054906101000a900460ff16151515610aa657600080fd5b600182039050600034111515610abb57600080fd5b34600482815481101515610acb57fe5b90600052602060002090600402016001016000828254019250508190555034600482815481101515610af957fe5b90600052602060002090600402016001015410151515610b1557fe5b7f338b861e6779c984549fab68ea3568c9044313be064152b16e73a8705ad42a21600482815481101515610b4557fe5b9060005260206000209060040201600101546040518082815260200191505060405180910390a15050565b600481815481101515610b7f57fe5b9060005260206000209060040201600091509050806000018054600181600116156101000203166002900480601f016020809104026020016040519081016040528092919081815260200182805460018160011615610100020316600290048015610c2b5780601f10610c0057610100808354040283529160200191610c2b565b820191906000526020600020905b815481529060010190602001808311610c0e57829003601f168201915b5050505050908060010154908060020160009054906101000a900473ffffffffffffffffffffffffffffffffffffffff16908060030154905084565b60006006600083815260200190815260200160002060009054906101000a900473ffffffffffffffffffffffffffffffffffffffff169050809050919050565b60606000600560018403815481101515610cbd57fe5b90600052602060002090600402016000018054600181600116156101000203166002900480601f016020809104026020016040519081016040528092919081815260200182805460018160011615610100020316600290048015610d625780601f10610d3757610100808354040283529160200191610d62565b820191906000526020600020905b815481529060010190602001808311610d4557829003601f168201915b50505050509150600560018403815481101515610d7b57fe5b906000526020600020906004020160010160009054906101000a900473ffffffffffffffffffffffffffffffffffffffff169050818191509150915091565b6000600460018303815481101515610dce57fe5b906000526020600020906004020160020160009054906101000a900473ffffffffffffffffffffffffffffffffffffffff169050809050919050565b6000809054906101000a900473ffffffffffffffffffffffffffffffffffffffff1673ffffffffffffffffffffffffffffffffffffffff163373ffffffffffffffffffffffffffffffffffffffff16141515610e6557600080fd5b6000809054906101000a900473ffffffffffffffffffffffffffffffffffffffff1673ffffffffffffffffffffffffffffffffffffffff167ff8df31144d9c2f0f6b59d69b8b98abd5459d07f2742c4df920b25aae33c6482060405160405180910390a260008060006101000a81548173ffffffffffffffffffffffffffffffffffffffff021916908373ffffffffffffffffffffffffffffffffffffffff160217905550565b6000809054906101000a900473ffffffffffffffffffffffffffffffffffffffff1673ffffffffffffffffffffffffffffffffffffffff163373ffffffffffffffffffffffffffffffffffffffff16141515610f6757600080fd5b6000809054906101000a900473ffffffffffffffffffffffffffffffffffffffff1673ffffffffffffffffffffffffffffffffffffffff16ff5b6000809054906101000a900473ffffffffffffffffffffffffffffffffffffffff1681565b6000806001830391506001840390503373ffffffffffffffffffffffffffffffffffffffff16600483815481101515610ffb57fe5b906000526020600020906004020160020160009054906101000a900473ffffffffffffffffffffffffffffffffffffffff1673ffffffffffffffffffffffffffffffffffffffff1614151561104f57600080fd5b600060048381548110151561106057fe5b90600052602060002090600402016001015411151561107e57600080fd5b60058181548110151561108d57fe5b9060005260206000209060040201600201546004838154811015156110ae57fe5b9060005260206000209060040201600301541415156110cc57600080fd5b6005818154811015156110db57fe5b906000526020600020906004020160010160009054906101000a900473ffffffffffffffffffffffffffffffffffffffff1660066000600154815260200190815260200160002060006101000a81548173ffffffffffffffffffffffffffffffffffffffff021916908373ffffffffffffffffffffffffffffffffffffffff1602179055507f56c1c86a49ab7c93c4c9d2f0ca536d058cfa8432cdc4609941af35c35e87979f60066000600154815260200190815260200160002060009054906101000a900473ffffffffffffffffffffffffffffffffffffffff16604051808273ffffffffffffffffffffffffffffffffffffffff1673ffffffffffffffffffffffffffffffffffffffff16815260200191505060405180910390a150505050565b600080600760009054906101000a900460ff1615151561121d57600080fd5b6001830391506006600084815260200190815260200160002060009054906101000a900473ffffffffffffffffffffffffffffffffffffffff1673ffffffffffffffffffffffffffffffffffffffff163373ffffffffffffffffffffffffffffffffffffffff1614151561129057600080fd5b60006004838154811015156112a157fe5b9060005260206000209060040201600101541115156112bf57600080fd5b6004828154811015156112ce57fe5b906000526020600020906004020160010154905060006004838154811015156112f357fe5b9060005260206000209060040201600101819055506006600084815260200190815260200160002060009054906101000a900473ffffffffffffffffffffffffffffffffffffffff1673ffffffffffffffffffffffffffffffffffffffff166108fc829081150290604051600060405180830381858888f19350505050158015611381573d6000803e3d6000fd5b50505050565b60058181548110151561139657fe5b9060005260206000209060040201600091509050806000018054600181600116156101000203166002900480601f0160208091040260200160405190810160405280929190818152602001828054600181600116156101000203166002900480156114425780601f1061141757610100808354040283529160200191611442565b820191906000526020600020905b81548152906001019060200180831161142557829003601f168201915b5050505050908060010160009054906101000a900473ffffffffffffffffffffffffffffffffffffffff16908060020154908060030154905084565b6000600480549050905080905090565b6004600182038154811015156114a057fe5b906000526020600020906004020160020160009054906101000a900473ffffffffffffffffffffffffffffffffffffffff1673ffffffffffffffffffffffffffffffffffffffff163373ffffffffffffffffffffffffffffffffffffffff1614151561150b57600080fd5b600760009054906101000a900460ff1615600760006101000a81548160ff02191690831515021790555050565b606060046001830381548110151561154c57fe5b90600052602060002090600402016000018054600181600116156101000203166002900480601f0160208091040260200160405190810160405280929190818152602001828054600181600116156101000203166002900480156115f15780601f106115c6576101008083540402835291602001916115f1565b820191906000526020600020905b8154815290600101906020018083116115d457829003601f168201915b50505050509050809050919050565b60008060018303905060048181548110151561161857fe5b906000526020600020906004020160020160009054906101000a900473ffffffffffffffffffffffffffffffffffffffff1673ffffffffffffffffffffffffffffffffffffffff163373ffffffffffffffffffffffffffffffffffffffff161415151561168457600080fd5b60016002540160028190555060056080604051908101604052808681526020013373ffffffffffffffffffffffffffffffffffffffff168152602001858152602001600254815250908060018154018082558091505090600182039060005260206000209060040201600090919290919091506000820151816000019080519060200190611713929190611952565b5060208201518160010160006101000a81548173ffffffffffffffffffffffffffffffffffffffff021916908373ffffffffffffffffffffffffffffffffffffffff1602179055506040820151816002015560608201518160030155505050600191505092915050565b6000809054906101000a900473ffffffffffffffffffffffffffffffffffffffff1673ffffffffffffffffffffffffffffffffffffffff163373ffffffffffffffffffffffffffffffffffffffff161415156117d857600080fd5b6117e181611858565b50565b6000809054906101000a900473ffffffffffffffffffffffffffffffffffffffff1673ffffffffffffffffffffffffffffffffffffffff163373ffffffffffffffffffffffffffffffffffffffff1614151561183f57600080fd5b8073ffffffffffffffffffffffffffffffffffffffff16ff5b600073ffffffffffffffffffffffffffffffffffffffff168173ffffffffffffffffffffffffffffffffffffffff161415151561189457600080fd5b8073ffffffffffffffffffffffffffffffffffffffff166000809054906101000a900473ffffffffffffffffffffffffffffffffffffffff1673ffffffffffffffffffffffffffffffffffffffff167f8be0079c531659141344cd1fd0a4f28419497f9722a3daafe3b4186f6b6457e060405160405180910390a3806000806101000a81548173ffffffffffffffffffffffffffffffffffffffff021916908373ffffffffffffffffffffffffffffffffffffffff16021790555050565b828054600181600116156101000203166002900490600052602060002090601f016020900481019282601f1061199357805160ff19168380011785556119c1565b828001600101855582156119c1579182015b828111156119c05782518255916020019190600101906119a5565b5b5090506119ce91906119d2565b5090565b6119f491905b808211156119f05760008160009055506001016119d8565b5090565b905600a165627a7a723058206983f99e6228a7570842d089bfbbc178f0917499cd62353a051f01a6a78e8f970029",
  "source": "pragma solidity ^0.4.24;\n\nimport 'openzeppelin-solidity/contracts/lifecycle/Destructible.sol';\n\n/// @title Ether Flow\n/// @notice Bounty Dapp for Consensys Developer Academy 2018 Final Project\n/// @author Ki Chong Tran\n/// @dev Contract uses Open Zeppelin library destructible, which is also ownable, to implement the mortal design pattern\n\ncontract EtherFlow is Destructible {\n\n    ///@notice Counters to track and identify the requests (requestCount) and submissions(flowCount)\n    ///@dev Initialize counters to zero\n    uint requestCount = 0;\n    uint flowCount = 0;\n\n    ///@notice Reward amount for each request\n    ///@dev Reward initialized to zero\n    uint reward = 0;\n\n    ///@notice Events to notify when a new request or flow has been submitted\n    ///@dev Users would be notified when there was a new request and the amount of the posted reward\n    event LogFlowRequested (uint reward);\n    ///@dev Requestors would be notified when their request was responded to\n    event LogFlowSubmitted (uint requestCount);\n\n    ///@notice Structure for each new request containing all the necessary information\n    struct request {\n        string question;\n        uint reward;\n        address requestor;\n        uint requestCount;\n    }\n\n    ///@dev Stores all the requests in an array\n    request[] public requestArray;\n\n    ///@notice Make a new request by posting a question and sending an ether bounty\n    ///@dev Question, reward, requestor address, and request count is stored in the requestArray\n    ///@param _question New question being asked\n    ///msg.value or amount of reward or bounty, must be greater than 0\n    function newFlowRequest(string _question) public payable {\n        require (msg.value > 0);\n        uint _reward = msg.value;\n        emit LogFlowRequested(_reward);\n        requestCount = requestCount+1;\n        requestArray.push(request({\n            question: _question,\n            reward: _reward,\n            requestor: msg.sender,\n            requestCount: requestCount\n            }));\n        assert(requestArray[requestCount-1].reward >= msg.value);\n    }\n\n    ///@notice Structure for each new flow submission\n    struct flow {\n        string flow;\n        address wordsmith;\n        uint requestCount;\n        uint flowCount;\n    }\n\n    ///@notice Stores all flows in an array\n    flow[] public flowArray;\n\n    ///@notice Wordsmith can post a new flow in response to a question\n    ///@dev Flow, wordsmith address, requestCount identifier, and flowCount is stored in flowArray\n    ///@param _flow Lyric, poem, or rap that answers the question\n    ///@param _requestCount Number identifier that corresponds to the question being answered\n    /// Uint id is used so that requestCount number 1 corresponds to the first element in the array\n    ///@return True if flow successfully submitted, false otherwise\n    function postNewFlow(string _flow, uint _requestCount) public returns(bool) {\n        uint id = _requestCount-1;\n        require(msg.sender != requestArray[id].requestor);\n        flowCount = flowCount+1;\n        flowArray.push(flow({\n            flow: _flow,\n            wordsmith: msg.sender,\n            requestCount: _requestCount,\n            flowCount: flowCount\n        }));\n        return true;\n        emit LogFlowSubmitted(_requestCount);\n        }\n\n    ///@notice Maps requestCount identifier to address of the wordsmith that is selected by the requestor\n    mapping (uint => address) public chosenWordsmith;\n\n    ///@notice Wordsmith is notified if selected so they can collect their reward\n    event LogWordsmithChosen (address chosenWordsmithAddress);\n\n    ///@notice Flow requester selects wordsmith that will be able to claim reward\n    ///@dev Only the requestor is able to select the winning wordsmith\n    /// Uint idR is used so that requestCount number 1 corresponds to the first element in the array and so on\n    /// Uint idF is used so that flowXount number 1 corresponds to the first element in the array and so on\n    ///@param _flowCount Identifies the flow and wordsmith who submitted the flow\n    ///@param _requestCount Identifies the request\n    function selectWordsmith(uint _flowCount, uint _requestCount) public {\n        uint idR = _requestCount-1;\n        uint idF = _flowCount-1;\n        require(requestArray[idR].requestor == msg.sender);\n        require(requestArray[idR].reward > 0);\n        require(requestArray[idR].requestCount == flowArray[idF].requestCount);\n        chosenWordsmith[requestCount] = flowArray[idF].wordsmith;\n        emit LogWordsmithChosen(chosenWordsmith[requestCount]);\n    }\n\n    ///@notice ChosenWordsmith can claim their reward\n    ///@dev Only the chosenWordsmith can claim the reward\n    /// Reward amount is transfered to the chosenWordsmith and the reward is set to zero\n    ///@param _requestCount To identify which request the reward is in\n    function claimReward(uint _requestCount) public stopInEmergency {\n        uint id = _requestCount-1;\n        require(msg.sender == chosenWordsmith[_requestCount]);\n        require(requestArray[id].reward > 0);\n        uint claimedReward = requestArray[id].reward;\n        requestArray[id].reward = 0;\n        chosenWordsmith[_requestCount].transfer(claimedReward);\n    }\n\n    ///@notice Event to notify that a request reward has been boosted\n    event LogRewardIncreased(uint);\n\n    ///@notice Boost question reward\n    ///@dev Anyone can increase the reward amount of a request by sending in more etherflow\n    ///@param _requestCount Identifies which request to send ether to\n    function boostReward(uint _requestCount) public payable stopInEmergency {\n        uint id = _requestCount-1;\n        require(msg.value > 0);\n        requestArray[id].reward += msg.value;\n        assert(requestArray[id].reward >= msg.value);\n        emit LogRewardIncreased(requestArray[id].reward);\n    }\n\n    ///@notice Sees the reward amount for any request\n    ///@param _requestCount Identifies which request to see the reward from\n    ///@return rewardAmount\n    function seeRewardAmount(uint _requestCount) public view returns(uint rewardAmount) {\n      rewardAmount = requestArray[_requestCount-1].reward;\n      return rewardAmount;\n    }\n\n    ///@notice Gets the question for any request\n    ///@param _requestCount Identifies which request to get the question from\n    ///@return question\n    function getQuestion(uint _requestCount) public view returns(string question) {\n      question = requestArray[_requestCount-1].question;\n      return question;\n    }\n\n    ///@notice Gets the requestor address for any request\n    ///@param _requestCount Identifies which request to get the requestor address from\n    ///@return requestorAddress\n    function getRequestor(uint _requestCount) public view returns(address requestorAddress) {\n      requestorAddress = requestArray[_requestCount-1].requestor;\n      return requestorAddress;\n    }\n\n    ///@notice Gets the chosenWordsmith address for any request\n    ///@param _requestCount Identifies which request to get the requestor address from\n    ///@return requestorAddress\n    function getChosenWordsmith(uint _requestCount) public view returns(address chosenWordsmithAddress) {\n      chosenWordsmithAddress = chosenWordsmith[_requestCount];\n      return chosenWordsmithAddress;\n    }\n\n    ///@notice Gets the flow and address of a wordsmith\n    ///@param _flowCount Identifies which flow to get the flow and address from\n    ///@return flowPoem the submitted flow\n    ///@return wordsmith the address of the wordsmith\n    function getFlowArray(uint _flowCount) public view returns(\n      string flowPoem,\n      address wordsmith) {\n        flowPoem = flowArray[_flowCount-1].flow;\n        wordsmith = flowArray[_flowCount-1].wordsmith;\n        return (flowPoem, wordsmith);\n    }\n\n    ///@notice Gets the length of the current requestArray for use on UI\n    ///@return Uint length of the requestArrray\n    function getLength() public view returns(uint length) {\n      length = requestArray.length;\n      return length;\n    }\n\n    ///Circuit Breaker\n    ///@notice Requestor is the account that submits a new question and can activate circuit breaker only for their requests\n\n    ///@notice circuit breaker is set to off\n    bool private stopped = false;\n\n    ///@notice requestor can only stop movements of rewards for their own Requests\n    ///@dev turns on the circuit breaker stopInEmergency\n    ///@param _requestCount identifies the request to stop and checks the requestor is also the message sender\n    function stopRewardMovements(uint _requestCount) public {\n        require(msg.sender == requestArray[_requestCount-1].requestor);\n        stopped = !stopped;\n    }\n\n    ///@notice modifier that can pause functions\n    modifier stopInEmergency { require(!stopped); _; }\n\n}\n",
  "sourcePath": "C:\\Users\\User\\documents\\etherflow\\contracts\\EtherFlow.sol",
  "compiler": {
    "name": "solc",
    "version": "0.4.24+commit.e67f0147.Emscripten.clang"
  },
  "schemaVersion": "2.0.0",
  "updatedAt": "2018-08-27T09:48:10.690Z"
}