{
  "contractName": "EtherFlow",
  "abi": [
    {
      "constant": false,
      "inputs": [],
      "name": "toggleContractActive",
      "outputs": [],
      "payable": false,
      "stateMutability": "nonpayable",
      "type": "function"
    },
    {
      "constant": true,
      "inputs": [],
      "name": "owner",
      "outputs": [
        {
          "name": "",
          "type": "address"
        }
      ],
      "payable": false,
      "stateMutability": "view",
      "type": "function"
    },
    {
      "constant": true,
      "inputs": [
        {
          "name": "",
          "type": "address"
        }
      ],
      "name": "wordsmithFlows",
      "outputs": [
        {
          "name": "flow",
          "type": "string"
        },
        {
          "name": "wordsmith",
          "type": "address"
        },
        {
          "name": "flowType",
          "type": "uint8"
        },
        {
          "name": "flowCount",
          "type": "uint256"
        }
      ],
      "payable": false,
      "stateMutability": "view",
      "type": "function"
    },
    {
      "constant": true,
      "inputs": [],
      "name": "newRequest",
      "outputs": [
        {
          "name": "question",
          "type": "string"
        },
        {
          "name": "reward",
          "type": "uint256"
        },
        {
          "name": "flowType",
          "type": "uint8"
        }
      ],
      "payable": false,
      "stateMutability": "view",
      "type": "function"
    },
    {
      "constant": true,
      "inputs": [
        {
          "name": "",
          "type": "uint256"
        }
      ],
      "name": "flowArray",
      "outputs": [
        {
          "name": "flow",
          "type": "string"
        },
        {
          "name": "wordsmith",
          "type": "address"
        },
        {
          "name": "flowType",
          "type": "uint8"
        },
        {
          "name": "flowCount",
          "type": "uint256"
        }
      ],
      "payable": false,
      "stateMutability": "view",
      "type": "function"
    },
    {
      "constant": true,
      "inputs": [],
      "name": "chosenWordsmith",
      "outputs": [
        {
          "name": "",
          "type": "address"
        }
      ],
      "payable": false,
      "stateMutability": "view",
      "type": "function"
    },
    {
      "anonymous": false,
      "inputs": [
        {
          "indexed": true,
          "name": "reward",
          "type": "uint256"
        }
      ],
      "name": "LogFlowRequested",
      "type": "event"
    },
    {
      "anonymous": false,
      "inputs": [
        {
          "indexed": true,
          "name": "",
          "type": "uint256"
        }
      ],
      "name": "LogFlowSubmitted",
      "type": "event"
    },
    {
      "anonymous": false,
      "inputs": [
        {
          "indexed": false,
          "name": "",
          "type": "address"
        }
      ],
      "name": "LogWordsmithChosen",
      "type": "event"
    },
    {
      "anonymous": false,
      "inputs": [
        {
          "indexed": false,
          "name": "",
          "type": "uint256"
        }
      ],
      "name": "LogRewardIncreased",
      "type": "event"
    },
    {
      "constant": false,
      "inputs": [
        {
          "name": "_question",
          "type": "string"
        },
        {
          "name": "_flowType",
          "type": "uint8"
        }
      ],
      "name": "newFlowRequest",
      "outputs": [],
      "payable": true,
      "stateMutability": "payable",
      "type": "function"
    },
    {
      "constant": false,
      "inputs": [
        {
          "name": "_flow",
          "type": "string"
        },
        {
          "name": "_flowType",
          "type": "uint8"
        }
      ],
      "name": "postNewFlow",
      "outputs": [
        {
          "name": "",
          "type": "bool"
        }
      ],
      "payable": false,
      "stateMutability": "nonpayable",
      "type": "function"
    },
    {
      "constant": false,
      "inputs": [
        {
          "name": "_wordsmith",
          "type": "address"
        }
      ],
      "name": "selectWordsmith",
      "outputs": [],
      "payable": false,
      "stateMutability": "nonpayable",
      "type": "function"
    },
    {
      "constant": false,
      "inputs": [],
      "name": "claimReward",
      "outputs": [],
      "payable": false,
      "stateMutability": "nonpayable",
      "type": "function"
    },
    {
      "constant": false,
      "inputs": [],
      "name": "boostReward",
      "outputs": [],
      "payable": true,
      "stateMutability": "payable",
      "type": "function"
    },
    {
      "constant": false,
      "inputs": [
        {
          "name": "_wordsmith",
          "type": "address"
        }
      ],
      "name": "tipWordsmith",
      "outputs": [],
      "payable": true,
      "stateMutability": "payable",
      "type": "function"
    },
    {
      "constant": true,
      "inputs": [],
      "name": "getReward",
      "outputs": [
        {
          "name": "reward",
          "type": "uint256"
        }
      ],
      "payable": false,
      "stateMutability": "view",
      "type": "function"
    },
    {
      "constant": true,
      "inputs": [],
      "name": "getQuestion",
      "outputs": [
        {
          "name": "question",
          "type": "string"
        }
      ],
      "payable": false,
      "stateMutability": "view",
      "type": "function"
    },
    {
      "constant": true,
      "inputs": [
        {
          "name": "_flowCount",
          "type": "uint256"
        }
      ],
      "name": "getFlowArray",
      "outputs": [
        {
          "name": "flow",
          "type": "string"
        },
        {
          "name": "wordsmith",
          "type": "address"
        },
        {
          "name": "flowType",
          "type": "uint8"
        }
      ],
      "payable": false,
      "stateMutability": "view",
      "type": "function"
    }
  ],
  "bytecode": "0x6080604052336000806101000a81548173ffffffffffffffffffffffffffffffffffffffff021916908373ffffffffffffffffffffffffffffffffffffffff16021790555060008060146101000a81548160ff0219169083151502179055506000600155600060025534801561007457600080fd5b50611644806100846000396000f3006080604052600436106100db576000357c0100000000000000000000000000000000000000000000000000000000900463ffffffff1680631385d24c146100e05780633d18b912146100f75780633f0f87e514610122578063489ad82a1461015857806350bc12ab146101c15780638da5cb5b146102af5780638f2e470c14610306578063915150aa1461041157806398f62fe11461049f578063b88a802f1461054b578063b9923b7d14610562578063ca5f305614610657578063df672e42146106ae578063eff38f92146106b8578063ff529d7d14610748575b600080fd5b3480156100ec57600080fd5b506100f561078b565b005b34801561010357600080fd5b5061010c610812565b6040518082815260200191505060405180910390f35b610156600480360381019080803573ffffffffffffffffffffffffffffffffffffffff169060200190929190505050610822565b005b6101bf600480360381019080803590602001908201803590602001908080601f0160208091040260200160405190810160405280939291908181526020018383808284378201915050505050509192919290803560ff169060200190929190505050610917565b005b3480156101cd57600080fd5b506101ec60048036038101908080359060200190929190505050610a34565b60405180806020018473ffffffffffffffffffffffffffffffffffffffff1673ffffffffffffffffffffffffffffffffffffffff16815260200183600281111561023257fe5b60ff168152602001828103825285818151815260200191508051906020019080838360005b83811015610272578082015181840152602081019050610257565b50505050905090810190601f16801561029f5780820380516001836020036101000a031916815260200191505b5094505050505060405180910390f35b3480156102bb57600080fd5b506102c4610b77565b604051808273ffffffffffffffffffffffffffffffffffffffff1673ffffffffffffffffffffffffffffffffffffffff16815260200191505060405180910390f35b34801561031257600080fd5b50610347600480360381019080803573ffffffffffffffffffffffffffffffffffffffff169060200190929190505050610b9c565b60405180806020018573ffffffffffffffffffffffffffffffffffffffff1673ffffffffffffffffffffffffffffffffffffffff16815260200184600281111561038d57fe5b60ff168152602001838152602001828103825286818151815260200191508051906020019080838360005b838110156103d35780820151818401526020810190506103b8565b50505050905090810190601f1680156104005780820380516001836020036101000a031916815260200191505b509550505050505060405180910390f35b34801561041d57600080fd5b50610485600480360381019080803590602001908201803590602001908080601f0160208091040260200160405190810160405280939291908181526020018383808284378201915050505050509192919290803560ff169060200190929190505050610c91565b604051808215151515815260200191505060405180910390f35b3480156104ab57600080fd5b506104b4610f49565b60405180806020018481526020018360028111156104ce57fe5b60ff168152602001828103825285818151815260200191508051906020019080838360005b8381101561050e5780820151818401526020810190506104f3565b50505050905090810190601f16801561053b5780820380516001836020036101000a031916815260200191505b5094505050505060405180910390f35b34801561055757600080fd5b50610560611006565b005b34801561056e57600080fd5b5061058d600480360381019080803590602001909291905050506110f7565b60405180806020018573ffffffffffffffffffffffffffffffffffffffff1673ffffffffffffffffffffffffffffffffffffffff1681526020018460028111156105d357fe5b60ff168152602001838152602001828103825286818151815260200191508051906020019080838360005b838110156106195780820151818401526020810190506105fe565b50505050905090810190601f1680156106465780820380516001836020036101000a031916815260200191505b509550505050505060405180910390f35b34801561066357600080fd5b5061066c6111fb565b604051808273ffffffffffffffffffffffffffffffffffffffff1673ffffffffffffffffffffffffffffffffffffffff16815260200191505060405180910390f35b6106b6611221565b005b3480156106c457600080fd5b506106cd611292565b6040518080602001828103825283818151815260200191508051906020019080838360005b8381101561070d5780820151818401526020810190506106f2565b50505050905090810190601f16801561073a5780820380516001836020036101000a031916815260200191505b509250505060405180910390f35b34801561075457600080fd5b50610789600480360381019080803573ffffffffffffffffffffffffffffffffffffffff16906020019092919050505061133a565b005b6000809054906101000a900473ffffffffffffffffffffffffffffffffffffffff1673ffffffffffffffffffffffffffffffffffffffff163373ffffffffffffffffffffffffffffffffffffffff161415156107e657600080fd5b600060149054906101000a900460ff1615600060146101000a81548160ff021916908315150217905550565b6000600360010154905080905090565b60003411151561083157600080fd5b600660008273ffffffffffffffffffffffffffffffffffffffff1673ffffffffffffffffffffffffffffffffffffffff16815260200190815260200160002060010160009054906101000a900473ffffffffffffffffffffffffffffffffffffffff1673ffffffffffffffffffffffffffffffffffffffff168173ffffffffffffffffffffffffffffffffffffffff161415156108cd57600080fd5b8073ffffffffffffffffffffffffffffffffffffffff166108fc349081150290604051600060405180830381858888f19350505050158015610913573d6000803e3d6000fd5b5050565b60003373ffffffffffffffffffffffffffffffffffffffff166000809054906101000a900473ffffffffffffffffffffffffffffffffffffffff1673ffffffffffffffffffffffffffffffffffffffff1614151561097457600080fd5b60003411151561098357600080fd5b349050807fd9f511a93aa79cef511154679922b39d3ca84a62f84837ae6d90151033fb337e60405160405180910390a26060604051908101604052808481526020018281526020018360028111156109d757fe5b815250600360008201518160000190805190602001906109f89291906114ec565b506020820151816001015560408201518160020160006101000a81548160ff02191690836002811115610a2757fe5b0217905550905050505050565b6060600080600784815481101515610a4857fe5b90600052602060002090600302016000018054600181600116156101000203166002900480601f016020809104026020016040519081016040528092919081815260200182805460018160011615610100020316600290048015610aed5780601f10610ac257610100808354040283529160200191610aed565b820191906000526020600020905b815481529060010190602001808311610ad057829003601f168201915b50505050509250600784815481101515610b0357fe5b906000526020600020906003020160010160009054906101000a900473ffffffffffffffffffffffffffffffffffffffff169150600784815481101515610b4657fe5b906000526020600020906003020160010160149054906101000a900460ff1690508282829250925092509193909250565b6000809054906101000a900473ffffffffffffffffffffffffffffffffffffffff1681565b6006602052806000526040600020600091509050806000018054600181600116156101000203166002900480601f016020809104026020016040519081016040528092919081815260200182805460018160011615610100020316600290048015610c485780601f10610c1d57610100808354040283529160200191610c48565b820191906000526020600020905b815481529060010190602001808311610c2b57829003601f168201915b5050505050908060010160009054906101000a900473ffffffffffffffffffffffffffffffffffffffff16908060010160149054906101000a900460ff16908060020154905084565b60008060009054906101000a900473ffffffffffffffffffffffffffffffffffffffff1673ffffffffffffffffffffffffffffffffffffffff163373ffffffffffffffffffffffffffffffffffffffff1614151515610cef57600080fd5b60076080604051908101604052808581526020013373ffffffffffffffffffffffffffffffffffffffff168152602001846002811115610d2b57fe5b81526020016001600081548092919060010191905055815250908060018154018082558091505090600182039060005260206000209060030201600090919290919091506000820151816000019080519060200190610d8b9291906114ec565b5060208201518160010160006101000a81548173ffffffffffffffffffffffffffffffffffffffff021916908373ffffffffffffffffffffffffffffffffffffffff16021790555060408201518160010160146101000a81548160ff02191690836002811115610df757fe5b0217905550606082015181600201555050506007600160078054905003815481101515610e2057fe5b9060005260206000209060030201600660003373ffffffffffffffffffffffffffffffffffffffff1673ffffffffffffffffffffffffffffffffffffffff16815260200190815260200160002060008201816000019080546001816001161561010002031660029004610e9492919061156c565b506001820160009054906101000a900473ffffffffffffffffffffffffffffffffffffffff168160010160006101000a81548173ffffffffffffffffffffffffffffffffffffffff021916908373ffffffffffffffffffffffffffffffffffffffff1602179055506001820160149054906101000a900460ff168160010160146101000a81548160ff02191690836002811115610f2d57fe5b0217905550600282015481600201559050506001905092915050565b6003806000018054600181600116156101000203166002900480601f016020809104026020016040519081016040528092919081815260200182805460018160011615610100020316600290048015610fe35780601f10610fb857610100808354040283529160200191610fe3565b820191906000526020600020905b815481529060010190602001808311610fc657829003601f168201915b5050505050908060010154908060020160009054906101000a900460ff16905083565b6000600860009054906101000a900473ffffffffffffffffffffffffffffffffffffffff1673ffffffffffffffffffffffffffffffffffffffff163373ffffffffffffffffffffffffffffffffffffffff1614151561106457600080fd5b600060036001015411151561107857600080fd5b60036001015490506000600360010181905550600860009054906101000a900473ffffffffffffffffffffffffffffffffffffffff1673ffffffffffffffffffffffffffffffffffffffff166108fc829081150290604051600060405180830381858888f193505050501580156110f3573d6000803e3d6000fd5b5050565b60078181548110151561110657fe5b9060005260206000209060030201600091509050806000018054600181600116156101000203166002900480601f0160208091040260200160405190810160405280929190818152602001828054600181600116156101000203166002900480156111b25780601f10611187576101008083540402835291602001916111b2565b820191906000526020600020905b81548152906001019060200180831161119557829003601f168201915b5050505050908060010160009054906101000a900473ffffffffffffffffffffffffffffffffffffffff16908060010160149054906101000a900460ff16908060020154905084565b600860009054906101000a900473ffffffffffffffffffffffffffffffffffffffff1681565b60003411151561123057600080fd5b34600360010160008282540192505081905550346003600101541015151561125457fe5b7f338b861e6779c984549fab68ea3568c9044313be064152b16e73a8705ad42a216003600101546040518082815260200191505060405180910390a1565b606060036000018054600181600116156101000203166002900480601f01602080910402602001604051908101604052809291908181526020018280546001816001161561010002031660029004801561132d5780601f106113025761010080835404028352916020019161132d565b820191906000526020600020905b81548152906001019060200180831161131057829003601f168201915b5050505050905080905090565b3373ffffffffffffffffffffffffffffffffffffffff166000809054906101000a900473ffffffffffffffffffffffffffffffffffffffff1673ffffffffffffffffffffffffffffffffffffffff1614151561139557600080fd5b60006003600101541115156113a957600080fd5b600660008273ffffffffffffffffffffffffffffffffffffffff1673ffffffffffffffffffffffffffffffffffffffff16815260200190815260200160002060010160009054906101000a900473ffffffffffffffffffffffffffffffffffffffff1673ffffffffffffffffffffffffffffffffffffffff168173ffffffffffffffffffffffffffffffffffffffff1614151561144557600080fd5b80600860006101000a81548173ffffffffffffffffffffffffffffffffffffffff021916908373ffffffffffffffffffffffffffffffffffffffff1602179055507f56c1c86a49ab7c93c4c9d2f0ca536d058cfa8432cdc4609941af35c35e87979f81604051808273ffffffffffffffffffffffffffffffffffffffff1673ffffffffffffffffffffffffffffffffffffffff16815260200191505060405180910390a150565b828054600181600116156101000203166002900490600052602060002090601f016020900481019282601f1061152d57805160ff191683800117855561155b565b8280016001018555821561155b579182015b8281111561155a57825182559160200191906001019061153f565b5b50905061156891906115f3565b5090565b828054600181600116156101000203166002900490600052602060002090601f016020900481019282601f106115a557805485556115e2565b828001600101855582156115e257600052602060002091601f016020900482015b828111156115e15782548255916001019190600101906115c6565b5b5090506115ef91906115f3565b5090565b61161591905b808211156116115760008160009055506001016115f9565b5090565b905600a165627a7a72305820a8e65c0ced74f9a56b8e0ea43a4b2af7da26c5f002dd97d2dadac899ba3dcfc40029",
  "source": "pragma solidity ^0.4.24;\n\nimport \"./CircuitBreaker.sol\";\n\n/// @title Ether Flow\ncontract EtherFlow is CircuitBreaker {\n\n    enum FlowType { Haiku, Limerick, Freestyle }\n\n    event LogFlowRequested (uint indexed reward);\n    event LogFlowSubmitted (uint indexed);\n\n    uint flowCount = 0;\n    uint reward = 0;\n\n    struct request {\n        string question;\n        uint reward;\n        FlowType flowType;\n    }\n\n    request public newRequest;\n\n    ///@notice Post new request for a poem\n    ///@param _question New question being asked\n    ///@param _flowType The style of poetry preferred (Haiku, Limerick, or Freestyle)\n    function newFlowRequest(string _question, FlowType _flowType) public payable {\n        require (owner == msg.sender);\n        require (msg.value > 0);\n        uint _reward = msg.value;\n        emit LogFlowRequested(_reward);\n        newRequest = request(_question, _reward, _flowType);\n    }\n\n    mapping (address => flow) public wordsmithFlows;\n\n    struct flow {\n        string flow;\n        address wordsmith;\n        FlowType flowType;\n        uint flowCount;\n    }\n\n    flow[] public flowArray;\n\n    ///@notice Wordsmith post new poem in response to question\n    ///@param _flow Poem that answers the question\n    ///@param _flowType The style of poetry (Haiku, Limerick, or Freestyle) that is being used\n    ///@return true if flow successfully submitted, false otherwise\n    function postNewFlow(string _flow, FlowType _flowType) public returns(bool) {\n        require(msg.sender != owner);\n        flowArray.push(flow({\n            flow: _flow,\n            wordsmith: msg.sender,\n            flowType: _flowType,\n            flowCount: flowCount++\n        }));\n        wordsmithFlows[msg.sender] = flowArray[flowArray.length-1];\n        return true;\n        emit LogFlowSubmitted(flowCount);\n        }\n\n    address public chosenWordsmith;\n\n    event LogWordsmithChosen (address);\n\n    ///@notice Flow requester selects wordsmith that will be able to claim reward\n    ///@param _wordsmith Wordsmith to send reward to\n    function selectWordsmith(address _wordsmith) public {\n        require(owner == msg.sender);\n        require(newRequest.reward > 0);\n        require(_wordsmith == wordsmithFlows[_wordsmith].wordsmith);\n        chosenWordsmith = _wordsmith;\n        emit LogWordsmithChosen(_wordsmith);\n    }\n\n    ///@notice ChosenWordsmith can claim their reward\n    function claimReward() public {\n        require(msg.sender == chosenWordsmith);\n        require(newRequest.reward > 0);\n        uint claimedReward = newRequest.reward;\n        newRequest.reward = 0;\n        chosenWordsmith.transfer(claimedReward);\n    }\n\n    event LogRewardIncreased(uint);\n\n    ///@notice Boost question reward\n    function boostReward() public payable {\n        require(msg.value > 0);\n        newRequest.reward += msg.value;\n        assert(newRequest.reward >= msg.value);\n        emit LogRewardIncreased(newRequest.reward);\n    }\n\n    ///@notice Select and send extra money directly to wordsmith for spitting hot fire\n    ///@param _wordsmith Who is receiving extra money\n    function tipWordsmith(address _wordsmith) public payable {\n        require(msg.value > 0);\n        require(_wordsmith == wordsmithFlows[_wordsmith].wordsmith);\n        _wordsmith.transfer(msg.value);\n    }\n\n    //@notice to fetch newRequest reward element\n    function getReward() public view returns(uint reward) {\n      reward = newRequest.reward;\n      return reward;\n    }\n\n    function getQuestion() public view returns(string question) {\n      question = newRequest.question;\n      return question;\n    }\n\n    function getFlowArray(uint _flowCount) public view returns(\n      string flow,\n      address wordsmith,\n      FlowType flowType) {\n        flow = flowArray[_flowCount].flow;\n        wordsmith = flowArray[_flowCount].wordsmith;\n        flowType = flowArray[_flowCount].flowType;\n        return (flow, wordsmith, flowType);\n    }\n\n}\n",
  "sourcePath": "C:\\Users\\User\\documents\\truffle_react_etherflow\\contracts\\EtherFlow.sol",
  "compiler": {
    "name": "solc",
    "version": "0.4.24+commit.e67f0147.Emscripten.clang"
  },
  "schemaVersion": "2.0.0",
  "updatedAt": "2018-08-16T14:40:25.982Z"
}