{
  "contractName": "EtherFlow",
  "abi": [
    {
      "constant": true,
      "inputs": [
        {
          "name": "",
          "type": "uint256"
        }
      ],
      "name": "requestArray",
      "outputs": [
        {
          "name": "question",
          "type": "string"
        },
        {
          "name": "reward",
          "type": "uint256"
        },
        {
          "name": "requestor",
          "type": "address"
        },
        {
          "name": "requestCount",
          "type": "uint256"
        }
      ],
      "payable": false,
      "stateMutability": "view",
      "type": "function"
    },
    {
      "constant": true,
      "inputs": [
        {
          "name": "",
          "type": "uint256"
        }
      ],
      "name": "flowArray",
      "outputs": [
        {
          "name": "flow",
          "type": "string"
        },
        {
          "name": "wordsmith",
          "type": "address"
        },
        {
          "name": "requestCount",
          "type": "uint256"
        },
        {
          "name": "flowCount",
          "type": "uint256"
        }
      ],
      "payable": false,
      "stateMutability": "view",
      "type": "function"
    },
    {
      "constant": true,
      "inputs": [],
      "name": "chosenWordsmith",
      "outputs": [
        {
          "name": "",
          "type": "address"
        }
      ],
      "payable": false,
      "stateMutability": "view",
      "type": "function"
    },
    {
      "anonymous": false,
      "inputs": [
        {
          "indexed": true,
          "name": "reward",
          "type": "uint256"
        }
      ],
      "name": "LogFlowRequested",
      "type": "event"
    },
    {
      "anonymous": false,
      "inputs": [
        {
          "indexed": true,
          "name": "",
          "type": "uint256"
        }
      ],
      "name": "LogFlowSubmitted",
      "type": "event"
    },
    {
      "anonymous": false,
      "inputs": [
        {
          "indexed": false,
          "name": "",
          "type": "address"
        }
      ],
      "name": "LogWordsmithChosen",
      "type": "event"
    },
    {
      "anonymous": false,
      "inputs": [
        {
          "indexed": false,
          "name": "",
          "type": "uint256"
        }
      ],
      "name": "LogRewardIncreased",
      "type": "event"
    },
    {
      "constant": false,
      "inputs": [
        {
          "name": "_question",
          "type": "string"
        }
      ],
      "name": "newFlowRequest",
      "outputs": [],
      "payable": true,
      "stateMutability": "payable",
      "type": "function"
    },
    {
      "constant": false,
      "inputs": [
        {
          "name": "_flow",
          "type": "string"
        },
        {
          "name": "_requestCount",
          "type": "uint256"
        }
      ],
      "name": "postNewFlow",
      "outputs": [
        {
          "name": "",
          "type": "bool"
        }
      ],
      "payable": false,
      "stateMutability": "nonpayable",
      "type": "function"
    },
    {
      "constant": false,
      "inputs": [
        {
          "name": "_flowCount",
          "type": "uint256"
        },
        {
          "name": "_requestCount",
          "type": "uint256"
        }
      ],
      "name": "selectWordsmith",
      "outputs": [],
      "payable": false,
      "stateMutability": "nonpayable",
      "type": "function"
    },
    {
      "constant": false,
      "inputs": [
        {
          "name": "_requestCount",
          "type": "uint256"
        }
      ],
      "name": "claimReward",
      "outputs": [],
      "payable": false,
      "stateMutability": "nonpayable",
      "type": "function"
    },
    {
      "constant": false,
      "inputs": [
        {
          "name": "_requestCount",
          "type": "uint256"
        }
      ],
      "name": "boostReward",
      "outputs": [],
      "payable": true,
      "stateMutability": "payable",
      "type": "function"
    },
    {
      "constant": true,
      "inputs": [
        {
          "name": "_requestCount",
          "type": "uint256"
        }
      ],
      "name": "seeRewardAmount",
      "outputs": [
        {
          "name": "rewardAmount",
          "type": "uint256"
        }
      ],
      "payable": false,
      "stateMutability": "view",
      "type": "function"
    },
    {
      "constant": true,
      "inputs": [
        {
          "name": "_requestCount",
          "type": "uint256"
        }
      ],
      "name": "getQuestion",
      "outputs": [
        {
          "name": "question",
          "type": "string"
        }
      ],
      "payable": false,
      "stateMutability": "view",
      "type": "function"
    },
    {
      "constant": true,
      "inputs": [
        {
          "name": "_requestCount",
          "type": "uint256"
        }
      ],
      "name": "getRequestor",
      "outputs": [
        {
          "name": "requestorAddress",
          "type": "address"
        }
      ],
      "payable": false,
      "stateMutability": "view",
      "type": "function"
    },
    {
      "constant": true,
      "inputs": [
        {
          "name": "_flowCount",
          "type": "uint256"
        }
      ],
      "name": "getFlowArray",
      "outputs": [
        {
          "name": "flowPoem",
          "type": "string"
        },
        {
          "name": "wordsmith",
          "type": "address"
        }
      ],
      "payable": false,
      "stateMutability": "view",
      "type": "function"
    },
    {
      "constant": true,
      "inputs": [],
      "name": "getLength",
      "outputs": [
        {
          "name": "length",
          "type": "uint256"
        }
      ],
      "payable": false,
      "stateMutability": "view",
      "type": "function"
    },
    {
      "constant": false,
      "inputs": [
        {
          "name": "_requestCount",
          "type": "uint256"
        }
      ],
      "name": "stopRewardMovements",
      "outputs": [],
      "payable": false,
      "stateMutability": "nonpayable",
      "type": "function"
    }
  ],
  "bytecode": "0x608060405260008055600060015560006002556000600560146101000a81548160ff02191690831515021790555034801561003957600080fd5b50611415806100496000396000f3006080604052600436106100d0576000357c0100000000000000000000000000000000000000000000000000000000900463ffffffff16806308396461146100d55780631710e73b146101315780634195fbf3146101725780634607ecc61461019257806350bc12ab146102795780635ff270ed146103525780639ef753d5146103bf578063ae169a50146103f6578063b9923b7d14610423578063be1c766b1461050a578063c860779714610535578063ca5f305614610562578063db88176f146105b9578063e6b8307f1461065f575b600080fd5b61012f600480360381019080803590602001908201803590602001908080601f01602080910402602001604051908101604052809392919081815260200183838082843782019150505050505091929192905050506106ea565b005b34801561013d57600080fd5b5061015c6004803603810190808035906020019092919050505061081d565b6040518082815260200191505060405180910390f35b6101906004803603810190808035906020019092919050505061084d565b005b34801561019e57600080fd5b506101bd60048036038101908080359060200190929190505050610935565b60405180806020018581526020018473ffffffffffffffffffffffffffffffffffffffff1673ffffffffffffffffffffffffffffffffffffffff168152602001838152602001828103825286818151815260200191508051906020019080838360005b8381101561023b578082015181840152602081019050610220565b50505050905090810190601f1680156102685780820380516001836020036101000a031916815260200191505b509550505050505060405180910390f35b34801561028557600080fd5b506102a460048036038101908080359060200190929190505050610a2c565b60405180806020018373ffffffffffffffffffffffffffffffffffffffff1673ffffffffffffffffffffffffffffffffffffffff168152602001828103825284818151815260200191508051906020019080838360005b838110156103165780820151818401526020810190506102fb565b50505050905090810190601f1680156103435780820380516001836020036101000a031916815260200191505b50935050505060405180910390f35b34801561035e57600080fd5b5061037d60048036038101908080359060200190929190505050610b3f565b604051808273ffffffffffffffffffffffffffffffffffffffff1673ffffffffffffffffffffffffffffffffffffffff16815260200191505060405180910390f35b3480156103cb57600080fd5b506103f46004803603810190808035906020019092919080359060200190929190505050610b8f565b005b34801561040257600080fd5b5061042160048036038101908080359060200190929190505050610dbf565b005b34801561042f57600080fd5b5061044e60048036038101908080359060200190929190505050610f26565b60405180806020018573ffffffffffffffffffffffffffffffffffffffff1673ffffffffffffffffffffffffffffffffffffffff168152602001848152602001838152602001828103825286818151815260200191508051906020019080838360005b838110156104cc5780820151818401526020810190506104b1565b50505050905090810190601f1680156104f95780820380516001836020036101000a031916815260200191505b509550505050505060405180910390f35b34801561051657600080fd5b5061051f61101d565b6040518082815260200191505060405180910390f35b34801561054157600080fd5b506105606004803603810190808035906020019092919050505061102d565b005b34801561056e57600080fd5b506105776110d7565b604051808273ffffffffffffffffffffffffffffffffffffffff1673ffffffffffffffffffffffffffffffffffffffff16815260200191505060405180910390f35b3480156105c557600080fd5b506105e4600480360381019080803590602001909291905050506110fd565b6040518080602001828103825283818151815260200191508051906020019080838360005b83811015610624578082015181840152602081019050610609565b50505050905090810190601f1680156106515780820380516001836020036101000a031916815260200191505b509250505060405180910390f35b34801561066b57600080fd5b506106d0600480360381019080803590602001908201803590602001908080601f0160208091040260200160405190810160405280939291908181526020018383808284378201915050505050509192919290803590602001909291905050506111c5565b604051808215151515815260200191505060405180910390f35b600080341115156106fa57600080fd5b349050807fd9f511a93aa79cef511154679922b39d3ca84a62f84837ae6d90151033fb337e60405160405180910390a260036080604051908101604052808481526020018381526020013373ffffffffffffffffffffffffffffffffffffffff168152602001600080815480929190600101919050558152509080600181540180825580915050906001820390600052602060002090600402016000909192909190915060008201518160000190805190602001906107ba929190611344565b506020820151816001015560408201518160020160006101000a81548173ffffffffffffffffffffffffffffffffffffffff021916908373ffffffffffffffffffffffffffffffffffffffff160217905550606082015181600301555050505050565b600060036001830381548110151561083157fe5b9060005260206000209060040201600101549050809050919050565b6000600560149054906101000a900460ff1615151561086b57600080fd5b60018203905060003411151561088057600080fd5b3460038281548110151561089057fe5b906000526020600020906004020160010160008282540192505081905550346003828154811015156108be57fe5b906000526020600020906004020160010154101515156108da57fe5b7f338b861e6779c984549fab68ea3568c9044313be064152b16e73a8705ad42a2160038281548110151561090a57fe5b9060005260206000209060040201600101546040518082815260200191505060405180910390a15050565b60038181548110151561094457fe5b9060005260206000209060040201600091509050806000018054600181600116156101000203166002900480601f0160208091040260200160405190810160405280929190818152602001828054600181600116156101000203166002900480156109f05780601f106109c5576101008083540402835291602001916109f0565b820191906000526020600020905b8154815290600101906020018083116109d357829003601f168201915b5050505050908060010154908060020160009054906101000a900473ffffffffffffffffffffffffffffffffffffffff16908060030154905084565b60606000600460018403815481101515610a4257fe5b90600052602060002090600402016000018054600181600116156101000203166002900480601f016020809104026020016040519081016040528092919081815260200182805460018160011615610100020316600290048015610ae75780601f10610abc57610100808354040283529160200191610ae7565b820191906000526020600020905b815481529060010190602001808311610aca57829003601f168201915b50505050509150600460018403815481101515610b0057fe5b906000526020600020906004020160010160009054906101000a900473ffffffffffffffffffffffffffffffffffffffff169050818191509150915091565b6000600360018303815481101515610b5357fe5b906000526020600020906004020160020160009054906101000a900473ffffffffffffffffffffffffffffffffffffffff169050809050919050565b6000806001830391506001840390503373ffffffffffffffffffffffffffffffffffffffff16600383815481101515610bc457fe5b906000526020600020906004020160020160009054906101000a900473ffffffffffffffffffffffffffffffffffffffff1673ffffffffffffffffffffffffffffffffffffffff16141515610c1857600080fd5b6000600383815481101515610c2957fe5b906000526020600020906004020160010154111515610c4757600080fd5b600481815481101515610c5657fe5b906000526020600020906004020160020154600383815481101515610c7757fe5b906000526020600020906004020160030154141515610c9557600080fd5b600481815481101515610ca457fe5b906000526020600020906004020160010160009054906101000a900473ffffffffffffffffffffffffffffffffffffffff16600560006101000a81548173ffffffffffffffffffffffffffffffffffffffff021916908373ffffffffffffffffffffffffffffffffffffffff1602179055507f56c1c86a49ab7c93c4c9d2f0ca536d058cfa8432cdc4609941af35c35e87979f600482815481101515610d4657fe5b906000526020600020906004020160010160009054906101000a900473ffffffffffffffffffffffffffffffffffffffff16604051808273ffffffffffffffffffffffffffffffffffffffff1673ffffffffffffffffffffffffffffffffffffffff16815260200191505060405180910390a150505050565b600080600560149054906101000a900460ff16151515610dde57600080fd5b600183039150600560009054906101000a900473ffffffffffffffffffffffffffffffffffffffff1673ffffffffffffffffffffffffffffffffffffffff163373ffffffffffffffffffffffffffffffffffffffff16141515610e4057600080fd5b6000600383815481101515610e5157fe5b906000526020600020906004020160010154111515610e6f57600080fd5b600382815481101515610e7e57fe5b90600052602060002090600402016001015490506000600383815481101515610ea357fe5b906000526020600020906004020160010181905550600560009054906101000a900473ffffffffffffffffffffffffffffffffffffffff1673ffffffffffffffffffffffffffffffffffffffff166108fc829081150290604051600060405180830381858888f19350505050158015610f20573d6000803e3d6000fd5b50505050565b600481815481101515610f3557fe5b9060005260206000209060040201600091509050806000018054600181600116156101000203166002900480601f016020809104026020016040519081016040528092919081815260200182805460018160011615610100020316600290048015610fe15780601f10610fb657610100808354040283529160200191610fe1565b820191906000526020600020905b815481529060010190602001808311610fc457829003601f168201915b5050505050908060010160009054906101000a900473ffffffffffffffffffffffffffffffffffffffff16908060020154908060030154905084565b6000600380549050905080905090565b60036001820381548110151561103f57fe5b906000526020600020906004020160020160009054906101000a900473ffffffffffffffffffffffffffffffffffffffff1673ffffffffffffffffffffffffffffffffffffffff163373ffffffffffffffffffffffffffffffffffffffff161415156110aa57600080fd5b600560149054906101000a900460ff1615600560146101000a81548160ff02191690831515021790555050565b600560009054906101000a900473ffffffffffffffffffffffffffffffffffffffff1681565b606060036001830381548110151561111157fe5b90600052602060002090600402016000018054600181600116156101000203166002900480601f0160208091040260200160405190810160405280929190818152602001828054600181600116156101000203166002900480156111b65780601f1061118b576101008083540402835291602001916111b6565b820191906000526020600020905b81548152906001019060200180831161119957829003601f168201915b50505050509050809050919050565b6000806001830390506003818154811015156111dd57fe5b906000526020600020906004020160020160009054906101000a900473ffffffffffffffffffffffffffffffffffffffff1673ffffffffffffffffffffffffffffffffffffffff163373ffffffffffffffffffffffffffffffffffffffff161415151561124957600080fd5b60046080604051908101604052808681526020013373ffffffffffffffffffffffffffffffffffffffff16815260200185815260200160016000815480929190600101919050558152509080600181540180825580915050906001820390600052602060002090600402016000909192909190915060008201518160000190805190602001906112da929190611344565b5060208201518160010160006101000a81548173ffffffffffffffffffffffffffffffffffffffff021916908373ffffffffffffffffffffffffffffffffffffffff1602179055506040820151816002015560608201518160030155505050600191505092915050565b828054600181600116156101000203166002900490600052602060002090601f016020900481019282601f1061138557805160ff19168380011785556113b3565b828001600101855582156113b3579182015b828111156113b2578251825591602001919060010190611397565b5b5090506113c091906113c4565b5090565b6113e691905b808211156113e25760008160009055506001016113ca565b5090565b905600a165627a7a723058208821029e15cac981bae9de2209102ab13264e486e2c4ee981a98c467637e64d70029",
  "source": "pragma solidity ^0.4.24;\n\n/// @title Ether Flow\n/// @notice Bounty Dapp for Consensys Developer Academy 2018 Final Project\n/// @author Ki Chong Tran\ncontract EtherFlow {\n\n    ///@notice Counters to track and identify the requests (requestCount) and submissions(flowCount)\n    ///@dev Initialize counters to zero\n    uint requestCount = 0;\n    uint flowCount = 0;\n\n    ///@notice Reward amount for each request\n    ///@dev Reward initialized to zero\n    uint reward = 0;\n\n    ///@notice Events to notify when a new request or flow has been submitted\n    ///@dev Users would be notified when there was a new request and the amount of the posted reward\n    event LogFlowRequested (uint indexed reward);\n    ///@dev Requestors would be notified when their request was responded to\n    event LogFlowSubmitted (uint indexed);\n\n    ///@notice Structure for each new request containing all the necessary information\n    struct request {\n        string question;\n        uint reward;\n        address requestor;\n        uint requestCount;\n    }\n\n    ///@dev Stores all the requests in an array\n    request[] public requestArray;\n\n    ///@notice Make a new request by posting a question and sending an ether bounty\n    ///@dev Question, reward, requestor address, and request count is stored in the requestArray\n    ///@param _question New question being asked\n    ///msg.value or amount of reward or bounty, must be greater than 0\n    function newFlowRequest(string _question) public payable {\n        require (msg.value > 0);\n        uint _reward = msg.value;\n        emit LogFlowRequested(_reward);\n        requestArray.push(request({\n            question: _question,\n            reward: _reward,\n            requestor: msg.sender,\n            requestCount: requestCount++\n        }));\n    }\n\n    ///@notice Structure for each new flow submission\n    struct flow {\n        string flow;\n        address wordsmith;\n        uint requestCount;\n        uint flowCount;\n    }\n\n    ///@notice Stores all flows in an array\n    flow[] public flowArray;\n\n    ///@notice Wordsmith can post a new flow in response to a question\n    ///@dev Flow, wordsmith address, requestCount identifier, and flowCount is stored in flowArray\n    ///@param _flow Lyric, poem, or rap that answers the question\n    ///@param _requestCount Number identifier that corresponds to the question being answered\n    /// Uint id is used so that requestCount number 1 corresponds to the first element in the array\n    ///@return True if flow successfully submitted, false otherwise\n    function postNewFlow(string _flow, uint _requestCount) public returns(bool) {\n        uint id = _requestCount-1;\n        require(msg.sender != requestArray[id].requestor);\n        flowArray.push(flow({\n            flow: _flow,\n            wordsmith: msg.sender,\n            requestCount: _requestCount,\n            flowCount: flowCount++\n        }));\n        return true;\n        emit LogFlowSubmitted(_requestCount);\n        }\n\n    ///@notice Address of the wordsmith that is selected by the requestor\n    address public chosenWordsmith;\n\n    ///@notice Wordsmith is notified if selected so they can collect their reward\n    event LogWordsmithChosen (address);\n\n    ///@notice Flow requester selects wordsmith that will be able to claim reward\n    ///@dev Only the requestor is able to select the winning wordsmith\n    /// Uint idR is used so that requestCount number 1 corresponds to the first element in the array and so on\n    /// Uint idF is used so that flowXount number 1 corresponds to the first element in the array and so on\n    ///@param _flowCount Identifies the flow and wordsmith who submitted the flow\n    ///@param _requestCount Identifies the request\n    function selectWordsmith(uint _flowCount, uint _requestCount) public {\n        uint idR = _requestCount-1;\n        uint idF = _flowCount-1;\n        require(requestArray[idR].requestor == msg.sender);\n        require(requestArray[idR].reward > 0);\n        require(requestArray[idR].requestCount == flowArray[idF].requestCount);\n        chosenWordsmith = (flowArray[idF].wordsmith);\n        emit LogWordsmithChosen(flowArray[idF].wordsmith);\n    }\n\n    ///@notice ChosenWordsmith can claim their reward\n    ///@dev Only the chosenWordsmith can claim the reward\n    /// Reward amount is transfered to the chosenWordsmith and the reward is set to zero\n    ///@param _requestCount To identify which request the reward is in\n    function claimReward(uint _requestCount) public stopInEmergency {\n        uint id = _requestCount-1;\n        require(msg.sender == chosenWordsmith);\n        require(requestArray[id].reward > 0);\n        uint claimedReward = requestArray[id].reward;\n        requestArray[id].reward = 0;\n        chosenWordsmith.transfer(claimedReward);\n    }\n\n    ///@notice Event to notify that a request reward has been boosted\n    event LogRewardIncreased(uint);\n\n    ///@notice Boost question reward\n    ///@dev Anyone can increase the reward amount of a request by sending in more etherflow\n    ///@param _requestCount Identifies which request to send ether to\n    function boostReward(uint _requestCount) public payable stopInEmergency {\n        uint id = _requestCount-1;\n        require(msg.value > 0);\n        requestArray[id].reward += msg.value;\n        assert(requestArray[id].reward >= msg.value);\n        emit LogRewardIncreased(requestArray[id].reward);\n    }\n\n    ///@notice Sees the reward amount for any request\n    ///@param _requestCount Identifies which request to see the reward from\n    ///@return rewardAmount\n    function seeRewardAmount(uint _requestCount) public view returns(uint rewardAmount) {\n      rewardAmount = requestArray[_requestCount-1].reward;\n      return rewardAmount;\n    }\n\n    ///@notice Gets the question for any request\n    ///@param _requestCount Identifies which request to get the question from\n    ///@return question\n    function getQuestion(uint _requestCount) public view returns(string question) {\n      question = requestArray[_requestCount-1].question;\n      return question;\n    }\n\n    ///@notice Gets the requestor address for any request\n    ///@param _requestCount Identifies which request to get the requestor address from\n    ///@return requestorAddress\n    function getRequestor(uint _requestCount) public view returns(address requestorAddress) {\n    requestorAddress = requestArray[_requestCount-1].requestor;\n    return requestorAddress;\n    }\n\n    ///@notice Gets the flow and address of a wordsmith\n    ///@param _flowCount Identifies which flow to get the flow and address from\n    ///@return flowPoem the submitted flow\n    ///@return wordsmith the address of the wordsmith\n    function getFlowArray(uint _flowCount) public view returns(\n      string flowPoem,\n      address wordsmith) {\n        flowPoem = flowArray[_flowCount-1].flow;\n        wordsmith = flowArray[_flowCount-1].wordsmith;\n        return (flowPoem, wordsmith);\n    }\n\n    function getLength() public view returns(uint length) {\n      length = requestArray.length;\n      return length;\n    }\n\n    ///Circuit Breaker\n    ///@notice Requestor is the account that submits a new question and can activate circuit breaker for their requests\n\n    ///@notice circuit breaker is set to off\n    bool private stopped = false;\n\n    ///@notice requestor can only stop movements of rewards for their own Requests\n    ///@dev turns on the circuit breaker stopInEmergency\n    ///@param _requestCount identifies the request to stop and checks the requestor is also the message sender\n    function stopRewardMovements(uint _requestCount) public {\n        require(msg.sender == requestArray[_requestCount-1].requestor);\n        stopped = !stopped;\n    }\n\n    ///@notice modifier that can pause functions\n    modifier stopInEmergency { require(!stopped); _; }\n\n}\n",
  "sourcePath": "C:\\Users\\User\\documents\\truffle_react_etherflow\\contracts\\EtherFlow.sol",
  "compiler": {
    "name": "solc",
    "version": "0.4.24+commit.e67f0147.Emscripten.clang"
  },
  "schemaVersion": "2.0.0",
  "updatedAt": "2018-08-26T08:49:50.153Z"
}