{
  "contractName": "EtherFlow",
  "abi": [
    {
      "constant": true,
      "inputs": [
        {
          "name": "",
          "type": "uint256"
        }
      ],
      "name": "requestArray",
      "outputs": [
        {
          "name": "question",
          "type": "string"
        },
        {
          "name": "reward",
          "type": "uint256"
        },
        {
          "name": "requestor",
          "type": "address"
        },
        {
          "name": "requestCount",
          "type": "uint256"
        }
      ],
      "payable": false,
      "stateMutability": "view",
      "type": "function"
    },
    {
      "constant": true,
      "inputs": [
        {
          "name": "",
          "type": "uint256"
        }
      ],
      "name": "flowArray",
      "outputs": [
        {
          "name": "flow",
          "type": "string"
        },
        {
          "name": "wordsmith",
          "type": "address"
        },
        {
          "name": "requestCount",
          "type": "uint256"
        },
        {
          "name": "flowCount",
          "type": "uint256"
        }
      ],
      "payable": false,
      "stateMutability": "view",
      "type": "function"
    },
    {
      "constant": true,
      "inputs": [],
      "name": "chosenWordsmith",
      "outputs": [
        {
          "name": "",
          "type": "address"
        }
      ],
      "payable": false,
      "stateMutability": "view",
      "type": "function"
    },
    {
      "anonymous": false,
      "inputs": [
        {
          "indexed": true,
          "name": "reward",
          "type": "uint256"
        }
      ],
      "name": "LogFlowRequested",
      "type": "event"
    },
    {
      "anonymous": false,
      "inputs": [
        {
          "indexed": true,
          "name": "",
          "type": "uint256"
        }
      ],
      "name": "LogFlowSubmitted",
      "type": "event"
    },
    {
      "anonymous": false,
      "inputs": [
        {
          "indexed": false,
          "name": "",
          "type": "address"
        }
      ],
      "name": "LogWordsmithChosen",
      "type": "event"
    },
    {
      "anonymous": false,
      "inputs": [
        {
          "indexed": false,
          "name": "",
          "type": "uint256"
        }
      ],
      "name": "LogRewardIncreased",
      "type": "event"
    },
    {
      "constant": false,
      "inputs": [
        {
          "name": "_question",
          "type": "string"
        }
      ],
      "name": "newFlowRequest",
      "outputs": [],
      "payable": true,
      "stateMutability": "payable",
      "type": "function"
    },
    {
      "constant": false,
      "inputs": [
        {
          "name": "_flow",
          "type": "string"
        },
        {
          "name": "_requestCount",
          "type": "uint256"
        }
      ],
      "name": "postNewFlow",
      "outputs": [
        {
          "name": "",
          "type": "bool"
        }
      ],
      "payable": false,
      "stateMutability": "nonpayable",
      "type": "function"
    },
    {
      "constant": false,
      "inputs": [
        {
          "name": "_flowCount",
          "type": "uint256"
        },
        {
          "name": "_requestCount",
          "type": "uint256"
        }
      ],
      "name": "selectWordsmith",
      "outputs": [],
      "payable": false,
      "stateMutability": "nonpayable",
      "type": "function"
    },
    {
      "constant": false,
      "inputs": [
        {
          "name": "_requestCount",
          "type": "uint256"
        }
      ],
      "name": "claimReward",
      "outputs": [],
      "payable": false,
      "stateMutability": "nonpayable",
      "type": "function"
    },
    {
      "constant": false,
      "inputs": [
        {
          "name": "_requestCount",
          "type": "uint256"
        }
      ],
      "name": "boostReward",
      "outputs": [],
      "payable": true,
      "stateMutability": "payable",
      "type": "function"
    },
    {
      "constant": true,
      "inputs": [
        {
          "name": "_requestCount",
          "type": "uint256"
        }
      ],
      "name": "seeRewardAmount",
      "outputs": [
        {
          "name": "rewardAmount",
          "type": "uint256"
        }
      ],
      "payable": false,
      "stateMutability": "view",
      "type": "function"
    },
    {
      "constant": true,
      "inputs": [
        {
          "name": "_requestCount",
          "type": "uint256"
        }
      ],
      "name": "getQuestion",
      "outputs": [
        {
          "name": "question",
          "type": "string"
        }
      ],
      "payable": false,
      "stateMutability": "view",
      "type": "function"
    },
    {
      "constant": true,
      "inputs": [
        {
          "name": "_requestCount",
          "type": "uint256"
        }
      ],
      "name": "getRequestor",
      "outputs": [
        {
          "name": "requestorAddress",
          "type": "address"
        }
      ],
      "payable": false,
      "stateMutability": "view",
      "type": "function"
    },
    {
      "constant": true,
      "inputs": [
        {
          "name": "_flowCount",
          "type": "uint256"
        }
      ],
      "name": "getFlowArray",
      "outputs": [
        {
          "name": "flowPoem",
          "type": "string"
        },
        {
          "name": "wordsmith",
          "type": "address"
        }
      ],
      "payable": false,
      "stateMutability": "view",
      "type": "function"
    },
    {
      "constant": false,
      "inputs": [
        {
          "name": "_requestCount",
          "type": "uint256"
        }
      ],
      "name": "stopRewardMovements",
      "outputs": [],
      "payable": false,
      "stateMutability": "nonpayable",
      "type": "function"
    }
  ],
  "bytecode": "0x608060405260008055600060015560006002556000600560146101000a81548160ff02191690831515021790555034801561003957600080fd5b506113cf806100496000396000f3006080604052600436106100c5576000357c0100000000000000000000000000000000000000000000000000000000900463ffffffff16806308396461146100ca5780631710e73b146101265780634195fbf3146101675780634607ecc61461018757806350bc12ab1461026e5780635ff270ed146103475780639ef753d5146103b4578063ae169a50146103eb578063b9923b7d14610418578063c8607797146104ff578063ca5f30561461052c578063db88176f14610583578063e6b8307f14610629575b600080fd5b610124600480360381019080803590602001908201803590602001908080601f01602080910402602001604051908101604052809392919081815260200183838082843782019150505050505091929192905050506106b4565b005b34801561013257600080fd5b50610151600480360381019080803590602001909291905050506107e7565b6040518082815260200191505060405180910390f35b61018560048036038101908080359060200190929190505050610817565b005b34801561019357600080fd5b506101b2600480360381019080803590602001909291905050506108ff565b60405180806020018581526020018473ffffffffffffffffffffffffffffffffffffffff1673ffffffffffffffffffffffffffffffffffffffff168152602001838152602001828103825286818151815260200191508051906020019080838360005b83811015610230578082015181840152602081019050610215565b50505050905090810190601f16801561025d5780820380516001836020036101000a031916815260200191505b509550505050505060405180910390f35b34801561027a57600080fd5b50610299600480360381019080803590602001909291905050506109f6565b60405180806020018373ffffffffffffffffffffffffffffffffffffffff1673ffffffffffffffffffffffffffffffffffffffff168152602001828103825284818151815260200191508051906020019080838360005b8381101561030b5780820151818401526020810190506102f0565b50505050905090810190601f1680156103385780820380516001836020036101000a031916815260200191505b50935050505060405180910390f35b34801561035357600080fd5b5061037260048036038101908080359060200190929190505050610b09565b604051808273ffffffffffffffffffffffffffffffffffffffff1673ffffffffffffffffffffffffffffffffffffffff16815260200191505060405180910390f35b3480156103c057600080fd5b506103e96004803603810190808035906020019092919080359060200190929190505050610b59565b005b3480156103f757600080fd5b5061041660048036038101908080359060200190929190505050610d89565b005b34801561042457600080fd5b5061044360048036038101908080359060200190929190505050610ef0565b60405180806020018573ffffffffffffffffffffffffffffffffffffffff1673ffffffffffffffffffffffffffffffffffffffff168152602001848152602001838152602001828103825286818151815260200191508051906020019080838360005b838110156104c15780820151818401526020810190506104a6565b50505050905090810190601f1680156104ee5780820380516001836020036101000a031916815260200191505b509550505050505060405180910390f35b34801561050b57600080fd5b5061052a60048036038101908080359060200190929190505050610fe7565b005b34801561053857600080fd5b50610541611091565b604051808273ffffffffffffffffffffffffffffffffffffffff1673ffffffffffffffffffffffffffffffffffffffff16815260200191505060405180910390f35b34801561058f57600080fd5b506105ae600480360381019080803590602001909291905050506110b7565b6040518080602001828103825283818151815260200191508051906020019080838360005b838110156105ee5780820151818401526020810190506105d3565b50505050905090810190601f16801561061b5780820380516001836020036101000a031916815260200191505b509250505060405180910390f35b34801561063557600080fd5b5061069a600480360381019080803590602001908201803590602001908080601f01602080910402602001604051908101604052809392919081815260200183838082843782019150505050505091929192908035906020019092919050505061117f565b604051808215151515815260200191505060405180910390f35b600080341115156106c457600080fd5b349050807fd9f511a93aa79cef511154679922b39d3ca84a62f84837ae6d90151033fb337e60405160405180910390a260036080604051908101604052808481526020018381526020013373ffffffffffffffffffffffffffffffffffffffff168152602001600080815480929190600101919050558152509080600181540180825580915050906001820390600052602060002090600402016000909192909190915060008201518160000190805190602001906107849291906112fe565b506020820151816001015560408201518160020160006101000a81548173ffffffffffffffffffffffffffffffffffffffff021916908373ffffffffffffffffffffffffffffffffffffffff160217905550606082015181600301555050505050565b60006003600183038154811015156107fb57fe5b9060005260206000209060040201600101549050809050919050565b6000600560149054906101000a900460ff1615151561083557600080fd5b60018203905060003411151561084a57600080fd5b3460038281548110151561085a57fe5b9060005260206000209060040201600101600082825401925050819055503460038281548110151561088857fe5b906000526020600020906004020160010154101515156108a457fe5b7f338b861e6779c984549fab68ea3568c9044313be064152b16e73a8705ad42a216003828154811015156108d457fe5b9060005260206000209060040201600101546040518082815260200191505060405180910390a15050565b60038181548110151561090e57fe5b9060005260206000209060040201600091509050806000018054600181600116156101000203166002900480601f0160208091040260200160405190810160405280929190818152602001828054600181600116156101000203166002900480156109ba5780601f1061098f576101008083540402835291602001916109ba565b820191906000526020600020905b81548152906001019060200180831161099d57829003601f168201915b5050505050908060010154908060020160009054906101000a900473ffffffffffffffffffffffffffffffffffffffff16908060030154905084565b60606000600460018403815481101515610a0c57fe5b90600052602060002090600402016000018054600181600116156101000203166002900480601f016020809104026020016040519081016040528092919081815260200182805460018160011615610100020316600290048015610ab15780601f10610a8657610100808354040283529160200191610ab1565b820191906000526020600020905b815481529060010190602001808311610a9457829003601f168201915b50505050509150600460018403815481101515610aca57fe5b906000526020600020906004020160010160009054906101000a900473ffffffffffffffffffffffffffffffffffffffff169050818191509150915091565b6000600360018303815481101515610b1d57fe5b906000526020600020906004020160020160009054906101000a900473ffffffffffffffffffffffffffffffffffffffff169050809050919050565b6000806001830391506001840390503373ffffffffffffffffffffffffffffffffffffffff16600383815481101515610b8e57fe5b906000526020600020906004020160020160009054906101000a900473ffffffffffffffffffffffffffffffffffffffff1673ffffffffffffffffffffffffffffffffffffffff16141515610be257600080fd5b6000600383815481101515610bf357fe5b906000526020600020906004020160010154111515610c1157600080fd5b600481815481101515610c2057fe5b906000526020600020906004020160020154600383815481101515610c4157fe5b906000526020600020906004020160030154141515610c5f57600080fd5b600481815481101515610c6e57fe5b906000526020600020906004020160010160009054906101000a900473ffffffffffffffffffffffffffffffffffffffff16600560006101000a81548173ffffffffffffffffffffffffffffffffffffffff021916908373ffffffffffffffffffffffffffffffffffffffff1602179055507f56c1c86a49ab7c93c4c9d2f0ca536d058cfa8432cdc4609941af35c35e87979f600482815481101515610d1057fe5b906000526020600020906004020160010160009054906101000a900473ffffffffffffffffffffffffffffffffffffffff16604051808273ffffffffffffffffffffffffffffffffffffffff1673ffffffffffffffffffffffffffffffffffffffff16815260200191505060405180910390a150505050565b600080600560149054906101000a900460ff16151515610da857600080fd5b600183039150600560009054906101000a900473ffffffffffffffffffffffffffffffffffffffff1673ffffffffffffffffffffffffffffffffffffffff163373ffffffffffffffffffffffffffffffffffffffff16141515610e0a57600080fd5b6000600383815481101515610e1b57fe5b906000526020600020906004020160010154111515610e3957600080fd5b600382815481101515610e4857fe5b90600052602060002090600402016001015490506000600383815481101515610e6d57fe5b906000526020600020906004020160010181905550600560009054906101000a900473ffffffffffffffffffffffffffffffffffffffff1673ffffffffffffffffffffffffffffffffffffffff166108fc829081150290604051600060405180830381858888f19350505050158015610eea573d6000803e3d6000fd5b50505050565b600481815481101515610eff57fe5b9060005260206000209060040201600091509050806000018054600181600116156101000203166002900480601f016020809104026020016040519081016040528092919081815260200182805460018160011615610100020316600290048015610fab5780601f10610f8057610100808354040283529160200191610fab565b820191906000526020600020905b815481529060010190602001808311610f8e57829003601f168201915b5050505050908060010160009054906101000a900473ffffffffffffffffffffffffffffffffffffffff16908060020154908060030154905084565b600360018203815481101515610ff957fe5b906000526020600020906004020160020160009054906101000a900473ffffffffffffffffffffffffffffffffffffffff1673ffffffffffffffffffffffffffffffffffffffff163373ffffffffffffffffffffffffffffffffffffffff1614151561106457600080fd5b600560149054906101000a900460ff1615600560146101000a81548160ff02191690831515021790555050565b600560009054906101000a900473ffffffffffffffffffffffffffffffffffffffff1681565b60606003600183038154811015156110cb57fe5b90600052602060002090600402016000018054600181600116156101000203166002900480601f0160208091040260200160405190810160405280929190818152602001828054600181600116156101000203166002900480156111705780601f1061114557610100808354040283529160200191611170565b820191906000526020600020905b81548152906001019060200180831161115357829003601f168201915b50505050509050809050919050565b60008060018303905060038181548110151561119757fe5b906000526020600020906004020160020160009054906101000a900473ffffffffffffffffffffffffffffffffffffffff1673ffffffffffffffffffffffffffffffffffffffff163373ffffffffffffffffffffffffffffffffffffffff161415151561120357600080fd5b60046080604051908101604052808681526020013373ffffffffffffffffffffffffffffffffffffffff16815260200185815260200160026000815480929190600101919050558152509080600181540180825580915050906001820390600052602060002090600402016000909192909190915060008201518160000190805190602001906112949291906112fe565b5060208201518160010160006101000a81548173ffffffffffffffffffffffffffffffffffffffff021916908373ffffffffffffffffffffffffffffffffffffffff1602179055506040820151816002015560608201518160030155505050600191505092915050565b828054600181600116156101000203166002900490600052602060002090601f016020900481019282601f1061133f57805160ff191683800117855561136d565b8280016001018555821561136d579182015b8281111561136c578251825591602001919060010190611351565b5b50905061137a919061137e565b5090565b6113a091905b8082111561139c576000816000905550600101611384565b5090565b905600a165627a7a7230582061930d803f8c7515cf43c93165150b5186acd941fd00bedae3a516ba70bb2d8a0029",
  "source": "pragma solidity ^0.4.24;\n\n/// @title Ether Flow\ncontract EtherFlow {\n\n    //address public requestor;\n    uint requestCount = 0;\n    uint reward = 0;\n    uint flowCount = 0;\n\n    event LogFlowRequested (uint indexed reward);\n    event LogFlowSubmitted (uint indexed);\n\n    struct request {\n        string question;\n        uint reward;\n        address requestor;\n        uint requestCount;\n    }\n\n    request[] public requestArray;\n\n    ///@notice Post new request for a poem\n    ///@param _question New question being asked\n    function newFlowRequest(string _question) public payable {\n        require (msg.value > 0);\n        uint _reward = msg.value;\n        emit LogFlowRequested(_reward);\n        requestArray.push(request({\n            question: _question,\n            reward: _reward,\n            requestor: msg.sender,\n            requestCount: requestCount++\n        }));\n    }\n\n    struct flow {\n        string flow;\n        address wordsmith;\n        uint requestCount;\n        uint flowCount;\n    }\n\n    flow[] public flowArray;\n\n    ///@notice Wordsmith post new poem in response to question\n    ///@param _flow Poem that answers the question\n    ///@return true if flow successfully submitted, false otherwise\n    function postNewFlow(string _flow, uint _requestCount) public returns(bool) {\n        uint id = _requestCount-1;\n        require(msg.sender != requestArray[id].requestor);\n        flowArray.push(flow({\n            flow: _flow,\n            wordsmith: msg.sender,\n            requestCount: _requestCount,\n            flowCount: flowCount++\n\n        }));\n        return true;\n        emit LogFlowSubmitted(_requestCount);\n        }\n\n    address public chosenWordsmith;\n\n    event LogWordsmithChosen (address);\n\n    ///@notice Flow requester selects wordsmith that will be able to claim reward\n    ///@param _flowCount to select the Flow\n    ///@param _requestCount to select the request\n    function selectWordsmith(uint _flowCount, uint _requestCount) public {\n        uint idR = _requestCount-1;\n        uint idF = _flowCount-1;\n        require(requestArray[idR].requestor == msg.sender);\n        require(requestArray[idR].reward > 0);\n        require(requestArray[idR].requestCount == flowArray[idF].requestCount);\n        chosenWordsmith = (flowArray[idF].wordsmith);\n        emit LogWordsmithChosen(flowArray[idF].wordsmith);\n    }\n\n    ///@notice ChosenWordsmith can claim their reward\n    function claimReward(uint _requestCount) public stopInEmergency {\n        uint id = _requestCount-1;\n        require(msg.sender == chosenWordsmith);\n        require(requestArray[id].reward > 0);\n        uint claimedReward = requestArray[id].reward;\n        requestArray[id].reward = 0;\n        chosenWordsmith.transfer(claimedReward);\n    }\n\n    event LogRewardIncreased(uint);\n\n    ///@notice Boost question reward\n    function boostReward(uint _requestCount) public payable stopInEmergency {\n        uint id = _requestCount-1;\n        require(msg.value > 0);\n        requestArray[id].reward += msg.value;\n        assert(requestArray[id].reward >= msg.value);\n        emit LogRewardIncreased(requestArray[id].reward);\n    }\n\n    //@notice to fetch newRequest reward element\n    function seeRewardAmount(uint _requestCount) public view returns(uint rewardAmount) {\n      rewardAmount = requestArray[_requestCount-1].reward;\n      return rewardAmount;\n    }\n\n    function getQuestion(uint _requestCount) public view returns(string question) {\n      question = requestArray[_requestCount-1].question;\n      return question;\n    }\n\n    function getRequestor(uint _requestCount) public view returns(address requestorAddress) {\n    requestorAddress = requestArray[_requestCount-1].requestor;\n    return requestorAddress;\n    }\n\n    function getFlowArray(uint _flowCount) public view returns(\n      string flowPoem,\n      address wordsmith) {\n        flowPoem = flowArray[_flowCount-1].flow;\n        wordsmith = flowArray[_flowCount-1].wordsmith;\n        return (flowPoem, wordsmith);\n    }\n\n    ///Circuit Breaker\n    ///@notice Requestor is the account that submits a new question and can activate circuit breaker for their requests\n\n    bool private stopped = false;\n\n\n    function stopRewardMovements(uint _requestCount) public {\n        require(msg.sender == requestArray[_requestCount-1].requestor);\n        stopped = !stopped;\n    }\n\n    modifier stopInEmergency { require(!stopped); _; }\n}\n",
  "sourcePath": "C:\\Users\\User\\documents\\truffle_react_etherflow\\contracts\\EtherFlow.sol",
  "compiler": {
    "name": "solc",
    "version": "0.4.24+commit.e67f0147.Emscripten.clang"
  },
  "schemaVersion": "2.0.0",
  "updatedAt": "2018-08-24T13:47:10.574Z"
}