{
  "contractName": "EtherFlow",
  "abi": [
    {
      "constant": true,
      "inputs": [
        {
          "name": "",
          "type": "uint256"
        }
      ],
      "name": "chosenWordsmith",
      "outputs": [
        {
          "name": "",
          "type": "address"
        }
      ],
      "payable": false,
      "stateMutability": "view",
      "type": "function"
    },
    {
      "constant": true,
      "inputs": [
        {
          "name": "",
          "type": "uint256"
        }
      ],
      "name": "requestArray",
      "outputs": [
        {
          "name": "question",
          "type": "string"
        },
        {
          "name": "reward",
          "type": "uint256"
        },
        {
          "name": "requestor",
          "type": "address"
        },
        {
          "name": "requestCount",
          "type": "uint256"
        }
      ],
      "payable": false,
      "stateMutability": "view",
      "type": "function"
    },
    {
      "constant": true,
      "inputs": [
        {
          "name": "",
          "type": "uint256"
        }
      ],
      "name": "flowArray",
      "outputs": [
        {
          "name": "flow",
          "type": "string"
        },
        {
          "name": "wordsmith",
          "type": "address"
        },
        {
          "name": "requestCount",
          "type": "uint256"
        },
        {
          "name": "flowCount",
          "type": "uint256"
        }
      ],
      "payable": false,
      "stateMutability": "view",
      "type": "function"
    },
    {
      "anonymous": false,
      "inputs": [
        {
          "indexed": false,
          "name": "reward",
          "type": "uint256"
        }
      ],
      "name": "LogFlowRequested",
      "type": "event"
    },
    {
      "anonymous": false,
      "inputs": [
        {
          "indexed": false,
          "name": "requestCount",
          "type": "uint256"
        }
      ],
      "name": "LogFlowSubmitted",
      "type": "event"
    },
    {
      "anonymous": false,
      "inputs": [
        {
          "indexed": false,
          "name": "chosenWordsmithAddress",
          "type": "address"
        }
      ],
      "name": "LogWordsmithChosen",
      "type": "event"
    },
    {
      "anonymous": false,
      "inputs": [
        {
          "indexed": false,
          "name": "",
          "type": "uint256"
        }
      ],
      "name": "LogRewardIncreased",
      "type": "event"
    },
    {
      "constant": false,
      "inputs": [
        {
          "name": "_question",
          "type": "string"
        }
      ],
      "name": "newFlowRequest",
      "outputs": [],
      "payable": true,
      "stateMutability": "payable",
      "type": "function"
    },
    {
      "constant": false,
      "inputs": [
        {
          "name": "_flow",
          "type": "string"
        },
        {
          "name": "_requestCount",
          "type": "uint256"
        }
      ],
      "name": "postNewFlow",
      "outputs": [
        {
          "name": "",
          "type": "bool"
        }
      ],
      "payable": false,
      "stateMutability": "nonpayable",
      "type": "function"
    },
    {
      "constant": false,
      "inputs": [
        {
          "name": "_flowCount",
          "type": "uint256"
        },
        {
          "name": "_requestCount",
          "type": "uint256"
        }
      ],
      "name": "selectWordsmith",
      "outputs": [],
      "payable": false,
      "stateMutability": "nonpayable",
      "type": "function"
    },
    {
      "constant": false,
      "inputs": [
        {
          "name": "_requestCount",
          "type": "uint256"
        }
      ],
      "name": "claimReward",
      "outputs": [],
      "payable": false,
      "stateMutability": "nonpayable",
      "type": "function"
    },
    {
      "constant": false,
      "inputs": [
        {
          "name": "_requestCount",
          "type": "uint256"
        }
      ],
      "name": "boostReward",
      "outputs": [],
      "payable": true,
      "stateMutability": "payable",
      "type": "function"
    },
    {
      "constant": true,
      "inputs": [
        {
          "name": "_requestCount",
          "type": "uint256"
        }
      ],
      "name": "seeRewardAmount",
      "outputs": [
        {
          "name": "rewardAmount",
          "type": "uint256"
        }
      ],
      "payable": false,
      "stateMutability": "view",
      "type": "function"
    },
    {
      "constant": true,
      "inputs": [
        {
          "name": "_requestCount",
          "type": "uint256"
        }
      ],
      "name": "getQuestion",
      "outputs": [
        {
          "name": "question",
          "type": "string"
        }
      ],
      "payable": false,
      "stateMutability": "view",
      "type": "function"
    },
    {
      "constant": true,
      "inputs": [
        {
          "name": "_requestCount",
          "type": "uint256"
        }
      ],
      "name": "getRequestor",
      "outputs": [
        {
          "name": "requestorAddress",
          "type": "address"
        }
      ],
      "payable": false,
      "stateMutability": "view",
      "type": "function"
    },
    {
      "constant": true,
      "inputs": [
        {
          "name": "_requestCount",
          "type": "uint256"
        }
      ],
      "name": "getChosenWordsmith",
      "outputs": [
        {
          "name": "chosenWordsmithAddress",
          "type": "address"
        }
      ],
      "payable": false,
      "stateMutability": "view",
      "type": "function"
    },
    {
      "constant": true,
      "inputs": [
        {
          "name": "_flowCount",
          "type": "uint256"
        }
      ],
      "name": "getFlowArray",
      "outputs": [
        {
          "name": "flowPoem",
          "type": "string"
        },
        {
          "name": "wordsmith",
          "type": "address"
        }
      ],
      "payable": false,
      "stateMutability": "view",
      "type": "function"
    },
    {
      "constant": true,
      "inputs": [],
      "name": "getLength",
      "outputs": [
        {
          "name": "length",
          "type": "uint256"
        }
      ],
      "payable": false,
      "stateMutability": "view",
      "type": "function"
    },
    {
      "constant": false,
      "inputs": [
        {
          "name": "_requestCount",
          "type": "uint256"
        }
      ],
      "name": "stopRewardMovements",
      "outputs": [],
      "payable": false,
      "stateMutability": "nonpayable",
      "type": "function"
    }
  ],
  "bytecode": "0x608060405260008055600060015560006002556000600660006101000a81548160ff02191690831515021790555034801561003957600080fd5b5061154f806100496000396000f3006080604052600436106100db576000357c0100000000000000000000000000000000000000000000000000000000900463ffffffff16806308396461146100e0578063120845091461013c5780631710e73b146101a95780634195fbf3146101ea5780634607ecc61461020a5780634bb55bbe146102f157806350bc12ab1461035e5780635ff270ed146104375780639ef753d5146104a4578063ae169a50146104db578063b9923b7d14610508578063be1c766b146105ef578063c86077971461061a578063db88176f14610647578063e6b8307f146106ed575b600080fd5b61013a600480360381019080803590602001908201803590602001908080601f0160208091040260200160405190810160405280939291908181526020018383808284378201915050505050509192919290505050610778565b005b34801561014857600080fd5b50610167600480360381019080803590602001909291905050506108e5565b604051808273ffffffffffffffffffffffffffffffffffffffff1673ffffffffffffffffffffffffffffffffffffffff16815260200191505060405180910390f35b3480156101b557600080fd5b506101d460048036038101908080359060200190929190505050610918565b6040518082815260200191505060405180910390f35b61020860048036038101908080359060200190929190505050610948565b005b34801561021657600080fd5b5061023560048036038101908080359060200190929190505050610a30565b60405180806020018581526020018473ffffffffffffffffffffffffffffffffffffffff1673ffffffffffffffffffffffffffffffffffffffff168152602001838152602001828103825286818151815260200191508051906020019080838360005b838110156102b3578082015181840152602081019050610298565b50505050905090810190601f1680156102e05780820380516001836020036101000a031916815260200191505b509550505050505060405180910390f35b3480156102fd57600080fd5b5061031c60048036038101908080359060200190929190505050610b27565b604051808273ffffffffffffffffffffffffffffffffffffffff1673ffffffffffffffffffffffffffffffffffffffff16815260200191505060405180910390f35b34801561036a57600080fd5b5061038960048036038101908080359060200190929190505050610b67565b60405180806020018373ffffffffffffffffffffffffffffffffffffffff1673ffffffffffffffffffffffffffffffffffffffff168152602001828103825284818151815260200191508051906020019080838360005b838110156103fb5780820151818401526020810190506103e0565b50505050905090810190601f1680156104285780820380516001836020036101000a031916815260200191505b50935050505060405180910390f35b34801561044357600080fd5b5061046260048036038101908080359060200190929190505050610c7a565b604051808273ffffffffffffffffffffffffffffffffffffffff1673ffffffffffffffffffffffffffffffffffffffff16815260200191505060405180910390f35b3480156104b057600080fd5b506104d96004803603810190808035906020019092919080359060200190929190505050610cca565b005b3480156104e757600080fd5b5061050660048036038101908080359060200190929190505050610f00565b005b34801561051457600080fd5b5061053360048036038101908080359060200190929190505050611089565b60405180806020018573ffffffffffffffffffffffffffffffffffffffff1673ffffffffffffffffffffffffffffffffffffffff168152602001848152602001838152602001828103825286818151815260200191508051906020019080838360005b838110156105b1578082015181840152602081019050610596565b50505050905090810190601f1680156105de5780820380516001836020036101000a031916815260200191505b509550505050505060405180910390f35b3480156105fb57600080fd5b50610604611180565b6040518082815260200191505060405180910390f35b34801561062657600080fd5b5061064560048036038101908080359060200190929190505050611190565b005b34801561065357600080fd5b506106726004803603810190808035906020019092919050505061123a565b6040518080602001828103825283818151815260200191508051906020019080838360005b838110156106b2578082015181840152602081019050610697565b50505050905090810190601f1680156106df5780820380516001836020036101000a031916815260200191505b509250505060405180910390f35b3480156106f957600080fd5b5061075e600480360381019080803590602001908201803590602001908080601f016020809104026020016040519081016040528093929190818152602001838380828437820191505050505050919291929080359060200190929190505050611302565b604051808215151515815260200191505060405180910390f35b6000803411151561078857600080fd5b3490507fd9f511a93aa79cef511154679922b39d3ca84a62f84837ae6d90151033fb337e816040518082815260200191505060405180910390a160016000540160008190555060036080604051908101604052808481526020018381526020013373ffffffffffffffffffffffffffffffffffffffff16815260200160005481525090806001815401808255809150509060018203906000526020600020906004020160009091929091909150600082015181600001908051906020019061085192919061147e565b506020820151816001015560408201518160020160006101000a81548173ffffffffffffffffffffffffffffffffffffffff021916908373ffffffffffffffffffffffffffffffffffffffff160217905550606082015181600301555050503460036001600054038154811015156108c557fe5b906000526020600020906004020160010154101515156108e157fe5b5050565b60056020528060005260406000206000915054906101000a900473ffffffffffffffffffffffffffffffffffffffff1681565b600060036001830381548110151561092c57fe5b9060005260206000209060040201600101549050809050919050565b6000600660009054906101000a900460ff1615151561096657600080fd5b60018203905060003411151561097b57600080fd5b3460038281548110151561098b57fe5b906000526020600020906004020160010160008282540192505081905550346003828154811015156109b957fe5b906000526020600020906004020160010154101515156109d557fe5b7f338b861e6779c984549fab68ea3568c9044313be064152b16e73a8705ad42a21600382815481101515610a0557fe5b9060005260206000209060040201600101546040518082815260200191505060405180910390a15050565b600381815481101515610a3f57fe5b9060005260206000209060040201600091509050806000018054600181600116156101000203166002900480601f016020809104026020016040519081016040528092919081815260200182805460018160011615610100020316600290048015610aeb5780601f10610ac057610100808354040283529160200191610aeb565b820191906000526020600020905b815481529060010190602001808311610ace57829003601f168201915b5050505050908060010154908060020160009054906101000a900473ffffffffffffffffffffffffffffffffffffffff16908060030154905084565b60006005600083815260200190815260200160002060009054906101000a900473ffffffffffffffffffffffffffffffffffffffff169050809050919050565b60606000600460018403815481101515610b7d57fe5b90600052602060002090600402016000018054600181600116156101000203166002900480601f016020809104026020016040519081016040528092919081815260200182805460018160011615610100020316600290048015610c225780601f10610bf757610100808354040283529160200191610c22565b820191906000526020600020905b815481529060010190602001808311610c0557829003601f168201915b50505050509150600460018403815481101515610c3b57fe5b906000526020600020906004020160010160009054906101000a900473ffffffffffffffffffffffffffffffffffffffff169050818191509150915091565b6000600360018303815481101515610c8e57fe5b906000526020600020906004020160020160009054906101000a900473ffffffffffffffffffffffffffffffffffffffff169050809050919050565b6000806001830391506001840390503373ffffffffffffffffffffffffffffffffffffffff16600383815481101515610cff57fe5b906000526020600020906004020160020160009054906101000a900473ffffffffffffffffffffffffffffffffffffffff1673ffffffffffffffffffffffffffffffffffffffff16141515610d5357600080fd5b6000600383815481101515610d6457fe5b906000526020600020906004020160010154111515610d8257600080fd5b600481815481101515610d9157fe5b906000526020600020906004020160020154600383815481101515610db257fe5b906000526020600020906004020160030154141515610dd057600080fd5b600481815481101515610ddf57fe5b906000526020600020906004020160010160009054906101000a900473ffffffffffffffffffffffffffffffffffffffff16600560008054815260200190815260200160002060006101000a81548173ffffffffffffffffffffffffffffffffffffffff021916908373ffffffffffffffffffffffffffffffffffffffff1602179055507f56c1c86a49ab7c93c4c9d2f0ca536d058cfa8432cdc4609941af35c35e87979f600560008054815260200190815260200160002060009054906101000a900473ffffffffffffffffffffffffffffffffffffffff16604051808273ffffffffffffffffffffffffffffffffffffffff1673ffffffffffffffffffffffffffffffffffffffff16815260200191505060405180910390a150505050565b600080600660009054906101000a900460ff16151515610f1f57600080fd5b6001830391506005600084815260200190815260200160002060009054906101000a900473ffffffffffffffffffffffffffffffffffffffff1673ffffffffffffffffffffffffffffffffffffffff163373ffffffffffffffffffffffffffffffffffffffff16141515610f9257600080fd5b6000600383815481101515610fa357fe5b906000526020600020906004020160010154111515610fc157600080fd5b600382815481101515610fd057fe5b90600052602060002090600402016001015490506000600383815481101515610ff557fe5b9060005260206000209060040201600101819055506005600084815260200190815260200160002060009054906101000a900473ffffffffffffffffffffffffffffffffffffffff1673ffffffffffffffffffffffffffffffffffffffff166108fc829081150290604051600060405180830381858888f19350505050158015611083573d6000803e3d6000fd5b50505050565b60048181548110151561109857fe5b9060005260206000209060040201600091509050806000018054600181600116156101000203166002900480601f0160208091040260200160405190810160405280929190818152602001828054600181600116156101000203166002900480156111445780601f1061111957610100808354040283529160200191611144565b820191906000526020600020905b81548152906001019060200180831161112757829003601f168201915b5050505050908060010160009054906101000a900473ffffffffffffffffffffffffffffffffffffffff16908060020154908060030154905084565b6000600380549050905080905090565b6003600182038154811015156111a257fe5b906000526020600020906004020160020160009054906101000a900473ffffffffffffffffffffffffffffffffffffffff1673ffffffffffffffffffffffffffffffffffffffff163373ffffffffffffffffffffffffffffffffffffffff1614151561120d57600080fd5b600660009054906101000a900460ff1615600660006101000a81548160ff02191690831515021790555050565b606060036001830381548110151561124e57fe5b90600052602060002090600402016000018054600181600116156101000203166002900480601f0160208091040260200160405190810160405280929190818152602001828054600181600116156101000203166002900480156112f35780601f106112c8576101008083540402835291602001916112f3565b820191906000526020600020905b8154815290600101906020018083116112d657829003601f168201915b50505050509050809050919050565b60008060018303905060038181548110151561131a57fe5b906000526020600020906004020160020160009054906101000a900473ffffffffffffffffffffffffffffffffffffffff1673ffffffffffffffffffffffffffffffffffffffff163373ffffffffffffffffffffffffffffffffffffffff161415151561138657600080fd5b600180540160018190555060046080604051908101604052808681526020013373ffffffffffffffffffffffffffffffffffffffff16815260200185815260200160015481525090806001815401808255809150509060018203906000526020600020906004020160009091929091909150600082015181600001908051906020019061141492919061147e565b5060208201518160010160006101000a81548173ffffffffffffffffffffffffffffffffffffffff021916908373ffffffffffffffffffffffffffffffffffffffff1602179055506040820151816002015560608201518160030155505050600191505092915050565b828054600181600116156101000203166002900490600052602060002090601f016020900481019282601f106114bf57805160ff19168380011785556114ed565b828001600101855582156114ed579182015b828111156114ec5782518255916020019190600101906114d1565b5b5090506114fa91906114fe565b5090565b61152091905b8082111561151c576000816000905550600101611504565b5090565b905600a165627a7a7230582039a77ea5d59ccc987516049aaadfc9008fa13b4b40935f3ea653683bfaf872480029",
  "source": "pragma solidity ^0.4.24;\n\n/// @title Ether Flow\n/// @notice Bounty Dapp for Consensys Developer Academy 2018 Final Project\n/// @author Ki Chong Tran\ncontract EtherFlow {\n\n    ///@notice Counters to track and identify the requests (requestCount) and submissions(flowCount)\n    ///@dev Initialize counters to zero\n    uint requestCount = 0;\n    uint flowCount = 0;\n\n    ///@notice Reward amount for each request\n    ///@dev Reward initialized to zero\n    uint reward = 0;\n\n    ///@notice Events to notify when a new request or flow has been submitted\n    ///@dev Users would be notified when there was a new request and the amount of the posted reward\n    event LogFlowRequested (uint reward);\n    ///@dev Requestors would be notified when their request was responded to\n    event LogFlowSubmitted (uint requestCount);\n\n    ///@notice Structure for each new request containing all the necessary information\n    struct request {\n        string question;\n        uint reward;\n        address requestor;\n        uint requestCount;\n    }\n\n    ///@dev Stores all the requests in an array\n    request[] public requestArray;\n\n    ///@notice Make a new request by posting a question and sending an ether bounty\n    ///@dev Question, reward, requestor address, and request count is stored in the requestArray\n    ///@param _question New question being asked\n    ///msg.value or amount of reward or bounty, must be greater than 0\n    function newFlowRequest(string _question) public payable {\n        require (msg.value > 0);\n        uint _reward = msg.value;\n        emit LogFlowRequested(_reward);\n        requestCount = requestCount+1;\n        requestArray.push(request({\n            question: _question,\n            reward: _reward,\n            requestor: msg.sender,\n            requestCount: requestCount\n            }));\n        assert(requestArray[requestCount-1].reward >= msg.value);\n    }\n\n    ///@notice Structure for each new flow submission\n    struct flow {\n        string flow;\n        address wordsmith;\n        uint requestCount;\n        uint flowCount;\n    }\n\n    ///@notice Stores all flows in an array\n    flow[] public flowArray;\n\n    ///@notice Wordsmith can post a new flow in response to a question\n    ///@dev Flow, wordsmith address, requestCount identifier, and flowCount is stored in flowArray\n    ///@param _flow Lyric, poem, or rap that answers the question\n    ///@param _requestCount Number identifier that corresponds to the question being answered\n    /// Uint id is used so that requestCount number 1 corresponds to the first element in the array\n    ///@return True if flow successfully submitted, false otherwise\n    function postNewFlow(string _flow, uint _requestCount) public returns(bool) {\n        uint id = _requestCount-1;\n        require(msg.sender != requestArray[id].requestor);\n        flowCount = flowCount+1;\n        flowArray.push(flow({\n            flow: _flow,\n            wordsmith: msg.sender,\n            requestCount: _requestCount,\n            flowCount: flowCount\n        }));\n        return true;\n        emit LogFlowSubmitted(_requestCount);\n        }\n\n    ///@notice Maps requestCount identifier to address of the wordsmith that is selected by the requestor\n    mapping (uint => address) public chosenWordsmith;\n\n    ///@notice Wordsmith is notified if selected so they can collect their reward\n    event LogWordsmithChosen (address chosenWordsmithAddress);\n\n    ///@notice Flow requester selects wordsmith that will be able to claim reward\n    ///@dev Only the requestor is able to select the winning wordsmith\n    /// Uint idR is used so that requestCount number 1 corresponds to the first element in the array and so on\n    /// Uint idF is used so that flowXount number 1 corresponds to the first element in the array and so on\n    ///@param _flowCount Identifies the flow and wordsmith who submitted the flow\n    ///@param _requestCount Identifies the request\n    function selectWordsmith(uint _flowCount, uint _requestCount) public {\n        uint idR = _requestCount-1;\n        uint idF = _flowCount-1;\n        require(requestArray[idR].requestor == msg.sender);\n        require(requestArray[idR].reward > 0);\n        require(requestArray[idR].requestCount == flowArray[idF].requestCount);\n        chosenWordsmith[requestCount] = (flowArray[idF].wordsmith);\n        emit LogWordsmithChosen(chosenWordsmith[requestCount]);\n    }\n\n    ///@notice ChosenWordsmith can claim their reward\n    ///@dev Only the chosenWordsmith can claim the reward\n    /// Reward amount is transfered to the chosenWordsmith and the reward is set to zero\n    ///@param _requestCount To identify which request the reward is in\n    function claimReward(uint _requestCount) public stopInEmergency {\n        uint id = _requestCount-1;\n        require(msg.sender == chosenWordsmith[_requestCount]);\n        require(requestArray[id].reward > 0);\n        uint claimedReward = requestArray[id].reward;\n        requestArray[id].reward = 0;\n        chosenWordsmith[_requestCount].transfer(claimedReward);\n    }\n\n    ///@notice Event to notify that a request reward has been boosted\n    event LogRewardIncreased(uint);\n\n    ///@notice Boost question reward\n    ///@dev Anyone can increase the reward amount of a request by sending in more etherflow\n    ///@param _requestCount Identifies which request to send ether to\n    function boostReward(uint _requestCount) public payable stopInEmergency {\n        uint id = _requestCount-1;\n        require(msg.value > 0);\n        requestArray[id].reward += msg.value;\n        assert(requestArray[id].reward >= msg.value);\n        emit LogRewardIncreased(requestArray[id].reward);\n    }\n\n    ///@notice Sees the reward amount for any request\n    ///@param _requestCount Identifies which request to see the reward from\n    ///@return rewardAmount\n    function seeRewardAmount(uint _requestCount) public view returns(uint rewardAmount) {\n      rewardAmount = requestArray[_requestCount-1].reward;\n      return rewardAmount;\n    }\n\n    ///@notice Gets the question for any request\n    ///@param _requestCount Identifies which request to get the question from\n    ///@return question\n    function getQuestion(uint _requestCount) public view returns(string question) {\n      question = requestArray[_requestCount-1].question;\n      return question;\n    }\n\n    ///@notice Gets the requestor address for any request\n    ///@param _requestCount Identifies which request to get the requestor address from\n    ///@return requestorAddress\n    function getRequestor(uint _requestCount) public view returns(address requestorAddress) {\n      requestorAddress = requestArray[_requestCount-1].requestor;\n      return requestorAddress;\n    }\n\n    ///@notice Gets the chosenWordsmith address for any request\n    ///@param _requestCount Identifies which request to get the requestor address from\n    ///@return requestorAddress\n    function getChosenWordsmith(uint _requestCount) public view returns(address chosenWordsmithAddress) {\n      chosenWordsmithAddress = chosenWordsmith[_requestCount];\n      return chosenWordsmithAddress;\n    }\n\n    ///@notice Gets the flow and address of a wordsmith\n    ///@param _flowCount Identifies which flow to get the flow and address from\n    ///@return flowPoem the submitted flow\n    ///@return wordsmith the address of the wordsmith\n    function getFlowArray(uint _flowCount) public view returns(\n      string flowPoem,\n      address wordsmith) {\n        flowPoem = flowArray[_flowCount-1].flow;\n        wordsmith = flowArray[_flowCount-1].wordsmith;\n        return (flowPoem, wordsmith);\n    }\n\n    ///@notice Gets the length of the current requestArray for use on UI\n    ///@return Uint length of the requestArrray\n    function getLength() public view returns(uint length) {\n      length = requestArray.length;\n      return length;\n    }\n\n    ///Circuit Breaker\n    ///@notice Requestor is the account that submits a new question and can activate circuit breaker for their requests\n\n    ///@notice circuit breaker is set to off\n    bool private stopped = false;\n\n    ///@notice requestor can only stop movements of rewards for their own Requests\n    ///@dev turns on the circuit breaker stopInEmergency\n    ///@param _requestCount identifies the request to stop and checks the requestor is also the message sender\n    function stopRewardMovements(uint _requestCount) public {\n        require(msg.sender == requestArray[_requestCount-1].requestor);\n        stopped = !stopped;\n    }\n\n    ///@notice modifier that can pause functions\n    modifier stopInEmergency { require(!stopped); _; }\n\n}\n",
  "sourcePath": "C:\\Users\\User\\documents\\truffle_react_etherflow\\contracts\\EtherFlow.sol",
  "compiler": {
    "name": "solc",
    "version": "0.4.24+commit.e67f0147.Emscripten.clang"
  },
  "schemaVersion": "2.0.0",
  "updatedAt": "2018-08-26T16:10:50.381Z"
}