{
  "contractName": "EtherFlow",
  "abi": [
    {
      "constant": false,
      "inputs": [],
      "name": "toggleContractActive",
      "outputs": [],
      "payable": false,
      "stateMutability": "nonpayable",
      "type": "function"
    },
    {
      "constant": true,
      "inputs": [],
      "name": "owner",
      "outputs": [
        {
          "name": "",
          "type": "address"
        }
      ],
      "payable": false,
      "stateMutability": "view",
      "type": "function"
    },
    {
      "constant": true,
      "inputs": [
        {
          "name": "",
          "type": "address"
        }
      ],
      "name": "wordsmithFlows",
      "outputs": [
        {
          "name": "flow",
          "type": "string"
        },
        {
          "name": "wordsmith",
          "type": "address"
        },
        {
          "name": "flowCount",
          "type": "uint256"
        }
      ],
      "payable": false,
      "stateMutability": "view",
      "type": "function"
    },
    {
      "constant": true,
      "inputs": [],
      "name": "newRequest",
      "outputs": [
        {
          "name": "question",
          "type": "string"
        },
        {
          "name": "reward",
          "type": "uint256"
        }
      ],
      "payable": false,
      "stateMutability": "view",
      "type": "function"
    },
    {
      "constant": true,
      "inputs": [
        {
          "name": "",
          "type": "uint256"
        }
      ],
      "name": "flowArray",
      "outputs": [
        {
          "name": "flow",
          "type": "string"
        },
        {
          "name": "wordsmith",
          "type": "address"
        },
        {
          "name": "flowCount",
          "type": "uint256"
        }
      ],
      "payable": false,
      "stateMutability": "view",
      "type": "function"
    },
    {
      "constant": true,
      "inputs": [],
      "name": "chosenWordsmith",
      "outputs": [
        {
          "name": "",
          "type": "address"
        }
      ],
      "payable": false,
      "stateMutability": "view",
      "type": "function"
    },
    {
      "anonymous": false,
      "inputs": [
        {
          "indexed": true,
          "name": "reward",
          "type": "uint256"
        }
      ],
      "name": "LogFlowRequested",
      "type": "event"
    },
    {
      "anonymous": false,
      "inputs": [
        {
          "indexed": true,
          "name": "",
          "type": "uint256"
        }
      ],
      "name": "LogFlowSubmitted",
      "type": "event"
    },
    {
      "anonymous": false,
      "inputs": [
        {
          "indexed": false,
          "name": "",
          "type": "address"
        }
      ],
      "name": "LogWordsmithChosen",
      "type": "event"
    },
    {
      "anonymous": false,
      "inputs": [
        {
          "indexed": false,
          "name": "",
          "type": "uint256"
        }
      ],
      "name": "LogRewardIncreased",
      "type": "event"
    },
    {
      "constant": false,
      "inputs": [
        {
          "name": "_question",
          "type": "string"
        }
      ],
      "name": "newFlowRequest",
      "outputs": [],
      "payable": true,
      "stateMutability": "payable",
      "type": "function"
    },
    {
      "constant": false,
      "inputs": [
        {
          "name": "_flow",
          "type": "string"
        }
      ],
      "name": "postNewFlow",
      "outputs": [
        {
          "name": "",
          "type": "bool"
        }
      ],
      "payable": false,
      "stateMutability": "nonpayable",
      "type": "function"
    },
    {
      "constant": false,
      "inputs": [
        {
          "name": "_wordsmith",
          "type": "address"
        }
      ],
      "name": "selectWordsmith",
      "outputs": [],
      "payable": false,
      "stateMutability": "nonpayable",
      "type": "function"
    },
    {
      "constant": false,
      "inputs": [],
      "name": "claimReward",
      "outputs": [],
      "payable": false,
      "stateMutability": "nonpayable",
      "type": "function"
    },
    {
      "constant": false,
      "inputs": [],
      "name": "boostReward",
      "outputs": [],
      "payable": true,
      "stateMutability": "payable",
      "type": "function"
    },
    {
      "constant": false,
      "inputs": [
        {
          "name": "_wordsmith",
          "type": "address"
        }
      ],
      "name": "tipWordsmith",
      "outputs": [],
      "payable": true,
      "stateMutability": "payable",
      "type": "function"
    },
    {
      "constant": true,
      "inputs": [],
      "name": "getReward",
      "outputs": [
        {
          "name": "rewardValue",
          "type": "uint256"
        }
      ],
      "payable": false,
      "stateMutability": "view",
      "type": "function"
    },
    {
      "constant": true,
      "inputs": [],
      "name": "getQuestion",
      "outputs": [
        {
          "name": "question",
          "type": "string"
        }
      ],
      "payable": false,
      "stateMutability": "view",
      "type": "function"
    },
    {
      "constant": true,
      "inputs": [
        {
          "name": "_flowCount",
          "type": "uint256"
        }
      ],
      "name": "getFlowArray",
      "outputs": [
        {
          "name": "flowPoem",
          "type": "string"
        },
        {
          "name": "wordsmith",
          "type": "address"
        }
      ],
      "payable": false,
      "stateMutability": "view",
      "type": "function"
    }
  ],
  "bytecode": "0x6080604052336000806101000a81548173ffffffffffffffffffffffffffffffffffffffff021916908373ffffffffffffffffffffffffffffffffffffffff16021790555060008060146101000a81548160ff0219169083151502179055506000600155600060025534801561007457600080fd5b5061145e806100846000396000f3006080604052600436106100db576000357c0100000000000000000000000000000000000000000000000000000000900463ffffffff16806308396461146100e05780631385d24c1461013c5780633d18b912146101535780633f0f87e51461017e57806350bc12ab146101b45780638da5cb5b1461028d5780638f2e470c146102e457806398f62fe1146103da578063a15ae55414610471578063b88a802f146104f2578063b9923b7d14610509578063ca5f3056146105e9578063df672e4214610640578063eff38f921461064a578063ff529d7d146106da575b600080fd5b61013a600480360381019080803590602001908201803590602001908080601f016020809104026020016040519081016040528093929190818152602001838380828437820191505050505050919291929050505061071d565b005b34801561014857600080fd5b506101516107a2565b005b34801561015f57600080fd5b50610168610829565b6040518082815260200191505060405180910390f35b6101b2600480360381019080803573ffffffffffffffffffffffffffffffffffffffff169060200190929190505050610839565b005b3480156101c057600080fd5b506101df6004803603810190808035906020019092919050505061092e565b60405180806020018373ffffffffffffffffffffffffffffffffffffffff1673ffffffffffffffffffffffffffffffffffffffff168152602001828103825284818151815260200191508051906020019080838360005b83811015610251578082015181840152602081019050610236565b50505050905090810190601f16801561027e5780820380516001836020036101000a031916815260200191505b50935050505060405180910390f35b34801561029957600080fd5b506102a2610a3b565b604051808273ffffffffffffffffffffffffffffffffffffffff1673ffffffffffffffffffffffffffffffffffffffff16815260200191505060405180910390f35b3480156102f057600080fd5b50610325600480360381019080803573ffffffffffffffffffffffffffffffffffffffff169060200190929190505050610a60565b60405180806020018473ffffffffffffffffffffffffffffffffffffffff1673ffffffffffffffffffffffffffffffffffffffff168152602001838152602001828103825285818151815260200191508051906020019080838360005b8381101561039d578082015181840152602081019050610382565b50505050905090810190601f1680156103ca5780820380516001836020036101000a031916815260200191505b5094505050505060405180910390f35b3480156103e657600080fd5b506103ef610b42565b6040518080602001838152602001828103825284818151815260200191508051906020019080838360005b8381101561043557808201518184015260208101905061041a565b50505050905090810190601f1680156104625780820380516001836020036101000a031916815260200191505b50935050505060405180910390f35b34801561047d57600080fd5b506104d8600480360381019080803590602001908201803590602001908080601f0160208091040260200160405190810160405280939291908181526020018383808284378201915050505050509192919290505050610bec565b604051808215151515815260200191505060405180910390f35b3480156104fe57600080fd5b50610507610e33565b005b34801561051557600080fd5b5061053460048036038101908080359060200190929190505050610f24565b60405180806020018473ffffffffffffffffffffffffffffffffffffffff1673ffffffffffffffffffffffffffffffffffffffff168152602001838152602001828103825285818151815260200191508051906020019080838360005b838110156105ac578082015181840152602081019050610591565b50505050905090810190601f1680156105d95780820380516001836020036101000a031916815260200191505b5094505050505060405180910390f35b3480156105f557600080fd5b506105fe611015565b604051808273ffffffffffffffffffffffffffffffffffffffff1673ffffffffffffffffffffffffffffffffffffffff16815260200191505060405180910390f35b61064861103b565b005b34801561065657600080fd5b5061065f6110ac565b6040518080602001828103825283818151815260200191508051906020019080838360005b8381101561069f578082015181840152602081019050610684565b50505050905090810190601f1680156106cc5780820380516001836020036101000a031916815260200191505b509250505060405180910390f35b3480156106e657600080fd5b5061071b600480360381019080803573ffffffffffffffffffffffffffffffffffffffff169060200190929190505050611154565b005b6000803411151561072d57600080fd5b349050807fd9f511a93aa79cef511154679922b39d3ca84a62f84837ae6d90151033fb337e60405160405180910390a260408051908101604052808381526020018281525060036000820151816000019080519060200190610790929190611306565b50602082015181600101559050505050565b6000809054906101000a900473ffffffffffffffffffffffffffffffffffffffff1673ffffffffffffffffffffffffffffffffffffffff163373ffffffffffffffffffffffffffffffffffffffff161415156107fd57600080fd5b600060149054906101000a900460ff1615600060146101000a81548160ff021916908315150217905550565b6000600360010154905080905090565b60003411151561084857600080fd5b600560008273ffffffffffffffffffffffffffffffffffffffff1673ffffffffffffffffffffffffffffffffffffffff16815260200190815260200160002060010160009054906101000a900473ffffffffffffffffffffffffffffffffffffffff1673ffffffffffffffffffffffffffffffffffffffff168173ffffffffffffffffffffffffffffffffffffffff161415156108e457600080fd5b8073ffffffffffffffffffffffffffffffffffffffff166108fc349081150290604051600060405180830381858888f1935050505015801561092a573d6000803e3d6000fd5b5050565b6060600060068381548110151561094157fe5b90600052602060002090600302016000018054600181600116156101000203166002900480601f0160208091040260200160405190810160405280929190818152602001828054600181600116156101000203166002900480156109e65780601f106109bb576101008083540402835291602001916109e6565b820191906000526020600020905b8154815290600101906020018083116109c957829003601f168201915b505050505091506006838154811015156109fc57fe5b906000526020600020906003020160010160009054906101000a900473ffffffffffffffffffffffffffffffffffffffff169050818191509150915091565b6000809054906101000a900473ffffffffffffffffffffffffffffffffffffffff1681565b6005602052806000526040600020600091509050806000018054600181600116156101000203166002900480601f016020809104026020016040519081016040528092919081815260200182805460018160011615610100020316600290048015610b0c5780601f10610ae157610100808354040283529160200191610b0c565b820191906000526020600020905b815481529060010190602001808311610aef57829003601f168201915b5050505050908060010160009054906101000a900473ffffffffffffffffffffffffffffffffffffffff16908060020154905083565b6003806000018054600181600116156101000203166002900480601f016020809104026020016040519081016040528092919081815260200182805460018160011615610100020316600290048015610bdc5780601f10610bb157610100808354040283529160200191610bdc565b820191906000526020600020905b815481529060010190602001808311610bbf57829003601f168201915b5050505050908060010154905082565b60008060009054906101000a900473ffffffffffffffffffffffffffffffffffffffff1673ffffffffffffffffffffffffffffffffffffffff163373ffffffffffffffffffffffffffffffffffffffff1614151515610c4a57600080fd5b60066060604051908101604052808481526020013373ffffffffffffffffffffffffffffffffffffffff1681526020016001600081548092919060010191905055815250908060018154018082558091505090600182039060005260206000209060030201600090919290919091506000820151816000019080519060200190610cd5929190611306565b5060208201518160010160006101000a81548173ffffffffffffffffffffffffffffffffffffffff021916908373ffffffffffffffffffffffffffffffffffffffff160217905550604082015181600201555050506006600160068054905003815481101515610d4157fe5b9060005260206000209060030201600560003373ffffffffffffffffffffffffffffffffffffffff1673ffffffffffffffffffffffffffffffffffffffff16815260200190815260200160002060008201816000019080546001816001161561010002031660029004610db5929190611386565b506001820160009054906101000a900473ffffffffffffffffffffffffffffffffffffffff168160010160006101000a81548173ffffffffffffffffffffffffffffffffffffffff021916908373ffffffffffffffffffffffffffffffffffffffff1602179055506002820154816002015590505060019050919050565b6000600760009054906101000a900473ffffffffffffffffffffffffffffffffffffffff1673ffffffffffffffffffffffffffffffffffffffff163373ffffffffffffffffffffffffffffffffffffffff16141515610e9157600080fd5b6000600360010154111515610ea557600080fd5b60036001015490506000600360010181905550600760009054906101000a900473ffffffffffffffffffffffffffffffffffffffff1673ffffffffffffffffffffffffffffffffffffffff166108fc829081150290604051600060405180830381858888f19350505050158015610f20573d6000803e3d6000fd5b5050565b600681815481101515610f3357fe5b9060005260206000209060030201600091509050806000018054600181600116156101000203166002900480601f016020809104026020016040519081016040528092919081815260200182805460018160011615610100020316600290048015610fdf5780601f10610fb457610100808354040283529160200191610fdf565b820191906000526020600020905b815481529060010190602001808311610fc257829003601f168201915b5050505050908060010160009054906101000a900473ffffffffffffffffffffffffffffffffffffffff16908060020154905083565b600760009054906101000a900473ffffffffffffffffffffffffffffffffffffffff1681565b60003411151561104a57600080fd5b34600360010160008282540192505081905550346003600101541015151561106e57fe5b7f338b861e6779c984549fab68ea3568c9044313be064152b16e73a8705ad42a216003600101546040518082815260200191505060405180910390a1565b606060036000018054600181600116156101000203166002900480601f0160208091040260200160405190810160405280929190818152602001828054600181600116156101000203166002900480156111475780601f1061111c57610100808354040283529160200191611147565b820191906000526020600020905b81548152906001019060200180831161112a57829003601f168201915b5050505050905080905090565b3373ffffffffffffffffffffffffffffffffffffffff166000809054906101000a900473ffffffffffffffffffffffffffffffffffffffff1673ffffffffffffffffffffffffffffffffffffffff161415156111af57600080fd5b60006003600101541115156111c357600080fd5b600560008273ffffffffffffffffffffffffffffffffffffffff1673ffffffffffffffffffffffffffffffffffffffff16815260200190815260200160002060010160009054906101000a900473ffffffffffffffffffffffffffffffffffffffff1673ffffffffffffffffffffffffffffffffffffffff168173ffffffffffffffffffffffffffffffffffffffff1614151561125f57600080fd5b80600760006101000a81548173ffffffffffffffffffffffffffffffffffffffff021916908373ffffffffffffffffffffffffffffffffffffffff1602179055507f56c1c86a49ab7c93c4c9d2f0ca536d058cfa8432cdc4609941af35c35e87979f81604051808273ffffffffffffffffffffffffffffffffffffffff1673ffffffffffffffffffffffffffffffffffffffff16815260200191505060405180910390a150565b828054600181600116156101000203166002900490600052602060002090601f016020900481019282601f1061134757805160ff1916838001178555611375565b82800160010185558215611375579182015b82811115611374578251825591602001919060010190611359565b5b509050611382919061140d565b5090565b828054600181600116156101000203166002900490600052602060002090601f016020900481019282601f106113bf57805485556113fc565b828001600101855582156113fc57600052602060002091601f016020900482015b828111156113fb5782548255916001019190600101906113e0565b5b509050611409919061140d565b5090565b61142f91905b8082111561142b576000816000905550600101611413565b5090565b905600a165627a7a723058204ca0de8f781d7d493ec4cf5ccb4c62b363b97d02ada3df7ac7385c78240ed49d0029",
  "source": "pragma solidity ^0.4.24;\n\nimport \"./CircuitBreaker.sol\";\n\n/// @title Ether Flow\ncontract EtherFlow is CircuitBreaker {\n\n    event LogFlowRequested (uint indexed reward);\n    event LogFlowSubmitted (uint indexed);\n\n    uint flowCount = 0;\n    uint reward = 0;\n\n    struct request {\n        string question;\n        uint reward;\n    }\n\n    request public newRequest;\n\n    ///@notice Post new request for a poem\n    ///@param _question New question being asked\n    function newFlowRequest(string _question) public payable {\n        //require (owner == msg.sender);\n        require (msg.value > 0);\n        uint _reward = msg.value;\n        emit LogFlowRequested(_reward);\n        newRequest = request(_question, _reward);\n    }\n\n    mapping (address => flow) public wordsmithFlows;\n\n    struct flow {\n        string flow;\n        address wordsmith;\n        uint flowCount;\n    }\n\n    flow[] public flowArray;\n\n    ///@notice Wordsmith post new poem in response to question\n    ///@param _flow Poem that answers the question\n    ///@return true if flow successfully submitted, false otherwise\n    function postNewFlow(string _flow) public returns(bool) {\n        require(msg.sender != owner);\n        flowArray.push(flow({\n            flow: _flow,\n            wordsmith: msg.sender,\n            flowCount: flowCount++\n        }));\n        wordsmithFlows[msg.sender] = flowArray[flowArray.length-1];\n        return true;\n        emit LogFlowSubmitted(flowCount);\n        }\n\n    address public chosenWordsmith;\n\n    event LogWordsmithChosen (address);\n\n    ///@notice Flow requester selects wordsmith that will be able to claim reward\n    ///@param _wordsmith Wordsmith to send reward to\n    function selectWordsmith(address _wordsmith) public {\n        require(owner == msg.sender);\n        require(newRequest.reward > 0);\n        require(_wordsmith == wordsmithFlows[_wordsmith].wordsmith);\n        chosenWordsmith = _wordsmith;\n        emit LogWordsmithChosen(_wordsmith);\n    }\n\n    ///@notice ChosenWordsmith can claim their reward\n    function claimReward() public {\n        require(msg.sender == chosenWordsmith);\n        require(newRequest.reward > 0);\n        uint claimedReward = newRequest.reward;\n        newRequest.reward = 0;\n        chosenWordsmith.transfer(claimedReward);\n    }\n\n    event LogRewardIncreased(uint);\n\n    ///@notice Boost question reward\n    function boostReward() public payable {\n        require(msg.value > 0);\n        newRequest.reward += msg.value;\n        assert(newRequest.reward >= msg.value);\n        emit LogRewardIncreased(newRequest.reward);\n    }\n\n    ///@notice Select and send extra money directly to wordsmith for spitting hot fire\n    ///@param _wordsmith Who is receiving extra money\n    function tipWordsmith(address _wordsmith) public payable {\n        require(msg.value > 0);\n        require(_wordsmith == wordsmithFlows[_wordsmith].wordsmith);\n        _wordsmith.transfer(msg.value);\n    }\n\n    //@notice to fetch newRequest reward element\n    function getReward() public view returns(uint rewardValue) {\n      rewardValue = newRequest.reward;\n      return rewardValue;\n    }\n\n    function getQuestion() public view returns(string question) {\n      question = newRequest.question;\n      return question;\n    }\n\n    function getFlowArray(uint _flowCount) public view returns(\n      string flowPoem,\n      address wordsmith) {\n        flowPoem = flowArray[_flowCount].flow;\n        wordsmith = flowArray[_flowCount].wordsmith;\n        return (flowPoem, wordsmith);\n    }\n\n}\n",
  "sourcePath": "C:\\Users\\User\\documents\\truffle_react_etherflow\\contracts\\EtherFlow.sol",
  "compiler": {
    "name": "solc",
    "version": "0.4.24+commit.e67f0147.Emscripten.clang"
  },
  "schemaVersion": "2.0.0",
  "updatedAt": "2018-08-21T09:22:00.446Z"
}