{
  "contractName": "EtherFlow",
  "abi": [
    {
      "constant": true,
      "inputs": [
        {
          "name": "",
          "type": "uint256"
        }
      ],
      "name": "chosenWordsmith",
      "outputs": [
        {
          "name": "",
          "type": "address"
        }
      ],
      "payable": false,
      "stateMutability": "view",
      "type": "function"
    },
    {
      "constant": true,
      "inputs": [
        {
          "name": "",
          "type": "uint256"
        }
      ],
      "name": "requestArray",
      "outputs": [
        {
          "name": "question",
          "type": "string"
        },
        {
          "name": "reward",
          "type": "uint256"
        },
        {
          "name": "requestor",
          "type": "address"
        },
        {
          "name": "requestCount",
          "type": "uint256"
        }
      ],
      "payable": false,
      "stateMutability": "view",
      "type": "function"
    },
    {
      "constant": false,
      "inputs": [],
      "name": "renounceOwnership",
      "outputs": [],
      "payable": false,
      "stateMutability": "nonpayable",
      "type": "function"
    },
    {
      "constant": false,
      "inputs": [],
      "name": "destroy",
      "outputs": [],
      "payable": false,
      "stateMutability": "nonpayable",
      "type": "function"
    },
    {
      "constant": true,
      "inputs": [],
      "name": "owner",
      "outputs": [
        {
          "name": "",
          "type": "address"
        }
      ],
      "payable": false,
      "stateMutability": "view",
      "type": "function"
    },
    {
      "constant": true,
      "inputs": [
        {
          "name": "",
          "type": "uint256"
        }
      ],
      "name": "flowArray",
      "outputs": [
        {
          "name": "flow",
          "type": "string"
        },
        {
          "name": "wordsmith",
          "type": "address"
        },
        {
          "name": "requestCount",
          "type": "uint256"
        },
        {
          "name": "flowCount",
          "type": "uint256"
        }
      ],
      "payable": false,
      "stateMutability": "view",
      "type": "function"
    },
    {
      "constant": false,
      "inputs": [
        {
          "name": "_newOwner",
          "type": "address"
        }
      ],
      "name": "transferOwnership",
      "outputs": [],
      "payable": false,
      "stateMutability": "nonpayable",
      "type": "function"
    },
    {
      "constant": false,
      "inputs": [
        {
          "name": "_recipient",
          "type": "address"
        }
      ],
      "name": "destroyAndSend",
      "outputs": [],
      "payable": false,
      "stateMutability": "nonpayable",
      "type": "function"
    },
    {
      "anonymous": false,
      "inputs": [
        {
          "indexed": false,
          "name": "reward",
          "type": "uint256"
        }
      ],
      "name": "LogFlowRequested",
      "type": "event"
    },
    {
      "anonymous": false,
      "inputs": [
        {
          "indexed": false,
          "name": "requestCount",
          "type": "uint256"
        }
      ],
      "name": "LogFlowSubmitted",
      "type": "event"
    },
    {
      "anonymous": false,
      "inputs": [
        {
          "indexed": false,
          "name": "chosenWordsmithAddress",
          "type": "address"
        }
      ],
      "name": "LogWordsmithChosen",
      "type": "event"
    },
    {
      "anonymous": false,
      "inputs": [
        {
          "indexed": false,
          "name": "",
          "type": "uint256"
        }
      ],
      "name": "LogRewardIncreased",
      "type": "event"
    },
    {
      "anonymous": false,
      "inputs": [
        {
          "indexed": true,
          "name": "previousOwner",
          "type": "address"
        }
      ],
      "name": "OwnershipRenounced",
      "type": "event"
    },
    {
      "anonymous": false,
      "inputs": [
        {
          "indexed": true,
          "name": "previousOwner",
          "type": "address"
        },
        {
          "indexed": true,
          "name": "newOwner",
          "type": "address"
        }
      ],
      "name": "OwnershipTransferred",
      "type": "event"
    },
    {
      "constant": false,
      "inputs": [
        {
          "name": "_question",
          "type": "string"
        }
      ],
      "name": "newFlowRequest",
      "outputs": [],
      "payable": true,
      "stateMutability": "payable",
      "type": "function"
    },
    {
      "constant": false,
      "inputs": [
        {
          "name": "_flow",
          "type": "string"
        },
        {
          "name": "_requestCount",
          "type": "uint256"
        }
      ],
      "name": "postNewFlow",
      "outputs": [
        {
          "name": "",
          "type": "bool"
        }
      ],
      "payable": false,
      "stateMutability": "nonpayable",
      "type": "function"
    },
    {
      "constant": false,
      "inputs": [
        {
          "name": "_requestCount",
          "type": "uint256"
        },
        {
          "name": "_flowCount",
          "type": "uint256"
        }
      ],
      "name": "selectWordsmith",
      "outputs": [],
      "payable": false,
      "stateMutability": "nonpayable",
      "type": "function"
    },
    {
      "constant": false,
      "inputs": [
        {
          "name": "_requestCount",
          "type": "uint256"
        }
      ],
      "name": "claimReward",
      "outputs": [],
      "payable": false,
      "stateMutability": "nonpayable",
      "type": "function"
    },
    {
      "constant": false,
      "inputs": [
        {
          "name": "_requestCount",
          "type": "uint256"
        }
      ],
      "name": "boostReward",
      "outputs": [],
      "payable": true,
      "stateMutability": "payable",
      "type": "function"
    },
    {
      "constant": true,
      "inputs": [
        {
          "name": "_requestCount",
          "type": "uint256"
        }
      ],
      "name": "seeRewardAmount",
      "outputs": [
        {
          "name": "rewardAmount",
          "type": "uint256"
        }
      ],
      "payable": false,
      "stateMutability": "view",
      "type": "function"
    },
    {
      "constant": true,
      "inputs": [
        {
          "name": "_requestCount",
          "type": "uint256"
        }
      ],
      "name": "getQuestion",
      "outputs": [
        {
          "name": "question",
          "type": "string"
        }
      ],
      "payable": false,
      "stateMutability": "view",
      "type": "function"
    },
    {
      "constant": true,
      "inputs": [
        {
          "name": "_requestCount",
          "type": "uint256"
        }
      ],
      "name": "getRequestor",
      "outputs": [
        {
          "name": "requestorAddress",
          "type": "address"
        }
      ],
      "payable": false,
      "stateMutability": "view",
      "type": "function"
    },
    {
      "constant": true,
      "inputs": [
        {
          "name": "_requestCount",
          "type": "uint256"
        }
      ],
      "name": "getChosenWordsmith",
      "outputs": [
        {
          "name": "chosenWordsmithAddress",
          "type": "address"
        }
      ],
      "payable": false,
      "stateMutability": "view",
      "type": "function"
    },
    {
      "constant": true,
      "inputs": [
        {
          "name": "_flowCount",
          "type": "uint256"
        }
      ],
      "name": "getFlowArray",
      "outputs": [
        {
          "name": "flowPoem",
          "type": "string"
        },
        {
          "name": "wordsmith",
          "type": "address"
        }
      ],
      "payable": false,
      "stateMutability": "view",
      "type": "function"
    },
    {
      "constant": true,
      "inputs": [],
      "name": "getLength",
      "outputs": [
        {
          "name": "length",
          "type": "uint256"
        }
      ],
      "payable": false,
      "stateMutability": "view",
      "type": "function"
    },
    {
      "constant": false,
      "inputs": [
        {
          "name": "_requestCount",
          "type": "uint256"
        }
      ],
      "name": "stopRewardMovements",
      "outputs": [],
      "payable": false,
      "stateMutability": "nonpayable",
      "type": "function"
    }
  ],
  "bytecode": "0x60806040526000600155600060025560006003556000600760006101000a81548160ff021916908315150217905550336000806101000a81548173ffffffffffffffffffffffffffffffffffffffff021916908373ffffffffffffffffffffffffffffffffffffffff160217905550611a2a8061007d6000396000f300608060405260043610610112576000357c0100000000000000000000000000000000000000000000000000000000900463ffffffff168063083964611461011757806312084509146101735780631710e73b146101e05780634195fbf3146102215780634607ecc6146102415780634bb55bbe1461032857806350bc12ab146103955780635ff270ed1461046e578063715018a6146104db57806383197ef0146104f25780638da5cb5b146105095780639ef753d514610560578063ae169a5014610597578063b9923b7d146105c4578063be1c766b146106ab578063c8607797146106d6578063db88176f14610703578063e6b8307f146107a9578063f2fde38b14610834578063f5074f4114610877575b600080fd5b610171600480360381019080803590602001908201803590602001908080601f01602080910402602001604051908101604052809392919081815260200183838082843782019150505050505091929192905050506108ba565b005b34801561017f57600080fd5b5061019e60048036038101908080359060200190929190505050610a25565b604051808273ffffffffffffffffffffffffffffffffffffffff1673ffffffffffffffffffffffffffffffffffffffff16815260200191505060405180910390f35b3480156101ec57600080fd5b5061020b60048036038101908080359060200190929190505050610a58565b6040518082815260200191505060405180910390f35b61023f60048036038101908080359060200190929190505050610a88565b005b34801561024d57600080fd5b5061026c60048036038101908080359060200190929190505050610b75565b60405180806020018581526020018473ffffffffffffffffffffffffffffffffffffffff1673ffffffffffffffffffffffffffffffffffffffff168152602001838152602001828103825286818151815260200191508051906020019080838360005b838110156102ea5780820151818401526020810190506102cf565b50505050905090810190601f1680156103175780820380516001836020036101000a031916815260200191505b509550505050505060405180910390f35b34801561033457600080fd5b5061035360048036038101908080359060200190929190505050610c6c565b604051808273ffffffffffffffffffffffffffffffffffffffff1673ffffffffffffffffffffffffffffffffffffffff16815260200191505060405180910390f35b3480156103a157600080fd5b506103c060048036038101908080359060200190929190505050610cac565b60405180806020018373ffffffffffffffffffffffffffffffffffffffff1673ffffffffffffffffffffffffffffffffffffffff168152602001828103825284818151815260200191508051906020019080838360005b83811015610432578082015181840152602081019050610417565b50505050905090810190601f16801561045f5780820380516001836020036101000a031916815260200191505b50935050505060405180910390f35b34801561047a57600080fd5b5061049960048036038101908080359060200190929190505050610dbf565b604051808273ffffffffffffffffffffffffffffffffffffffff1673ffffffffffffffffffffffffffffffffffffffff16815260200191505060405180910390f35b3480156104e757600080fd5b506104f0610e0f565b005b3480156104fe57600080fd5b50610507610f11565b005b34801561051557600080fd5b5061051e610fa6565b604051808273ffffffffffffffffffffffffffffffffffffffff1673ffffffffffffffffffffffffffffffffffffffff16815260200191505060405180910390f35b34801561056c57600080fd5b506105956004803603810190808035906020019092919080359060200190929190505050610fcb565b005b3480156105a357600080fd5b506105c2600480360381019080803590602001909291905050506111ff565b005b3480156105d057600080fd5b506105ef6004803603810190808035906020019092919050505061138e565b60405180806020018573ffffffffffffffffffffffffffffffffffffffff1673ffffffffffffffffffffffffffffffffffffffff168152602001848152602001838152602001828103825286818151815260200191508051906020019080838360005b8381101561066d578082015181840152602081019050610652565b50505050905090810190601f16801561069a5780820380516001836020036101000a031916815260200191505b509550505050505060405180910390f35b3480156106b757600080fd5b506106c0611485565b6040518082815260200191505060405180910390f35b3480156106e257600080fd5b5061070160048036038101908080359060200190929190505050611495565b005b34801561070f57600080fd5b5061072e6004803603810190808035906020019092919050505061153f565b6040518080602001828103825283818151815260200191508051906020019080838360005b8381101561076e578082015181840152602081019050610753565b50505050905090810190601f16801561079b5780820380516001836020036101000a031916815260200191505b509250505060405180910390f35b3480156107b557600080fd5b5061081a600480360381019080803590602001908201803590602001908080601f016020809104026020016040519081016040528093929190818152602001838380828437820191505050505050919291929080359060200190929190505050611607565b604051808215151515815260200191505060405180910390f35b34801561084057600080fd5b50610875600480360381019080803573ffffffffffffffffffffffffffffffffffffffff169060200190929190505050611784565b005b34801561088357600080fd5b506108b8600480360381019080803573ffffffffffffffffffffffffffffffffffffffff1690602001909291905050506117eb565b005b600080341115156108ca57600080fd5b3490507fd9f511a93aa79cef511154679922b39d3ca84a62f84837ae6d90151033fb337e816040518082815260200191505060405180910390a1600180540160018190555060046080604051908101604052808481526020018381526020013373ffffffffffffffffffffffffffffffffffffffff168152602001600154815250908060018154018082558091505090600182039060005260206000209060040201600090919290919091506000820151816000019080519060200190610992929190611959565b506020820151816001015560408201518160020160006101000a81548173ffffffffffffffffffffffffffffffffffffffff021916908373ffffffffffffffffffffffffffffffffffffffff160217905550606082015181600301555050503460046001805403815481101515610a0557fe5b90600052602060002090600402016001015410151515610a2157fe5b5050565b60066020528060005260406000206000915054906101000a900473ffffffffffffffffffffffffffffffffffffffff1681565b6000600460018303815481101515610a6c57fe5b9060005260206000209060040201600101549050809050919050565b6000801515600760009054906101000a900460ff161515141515610aab57600080fd5b600182039050600034111515610ac057600080fd5b34600482815481101515610ad057fe5b90600052602060002090600402016001016000828254019250508190555034600482815481101515610afe57fe5b90600052602060002090600402016001015410151515610b1a57fe5b7f338b861e6779c984549fab68ea3568c9044313be064152b16e73a8705ad42a21600482815481101515610b4a57fe5b9060005260206000209060040201600101546040518082815260200191505060405180910390a15050565b600481815481101515610b8457fe5b9060005260206000209060040201600091509050806000018054600181600116156101000203166002900480601f016020809104026020016040519081016040528092919081815260200182805460018160011615610100020316600290048015610c305780601f10610c0557610100808354040283529160200191610c30565b820191906000526020600020905b815481529060010190602001808311610c1357829003601f168201915b5050505050908060010154908060020160009054906101000a900473ffffffffffffffffffffffffffffffffffffffff16908060030154905084565b60006006600083815260200190815260200160002060009054906101000a900473ffffffffffffffffffffffffffffffffffffffff169050809050919050565b60606000600560018403815481101515610cc257fe5b90600052602060002090600402016000018054600181600116156101000203166002900480601f016020809104026020016040519081016040528092919081815260200182805460018160011615610100020316600290048015610d675780601f10610d3c57610100808354040283529160200191610d67565b820191906000526020600020905b815481529060010190602001808311610d4a57829003601f168201915b50505050509150600560018403815481101515610d8057fe5b906000526020600020906004020160010160009054906101000a900473ffffffffffffffffffffffffffffffffffffffff169050818191509150915091565b6000600460018303815481101515610dd357fe5b906000526020600020906004020160020160009054906101000a900473ffffffffffffffffffffffffffffffffffffffff169050809050919050565b6000809054906101000a900473ffffffffffffffffffffffffffffffffffffffff1673ffffffffffffffffffffffffffffffffffffffff163373ffffffffffffffffffffffffffffffffffffffff16141515610e6a57600080fd5b6000809054906101000a900473ffffffffffffffffffffffffffffffffffffffff1673ffffffffffffffffffffffffffffffffffffffff167ff8df31144d9c2f0f6b59d69b8b98abd5459d07f2742c4df920b25aae33c6482060405160405180910390a260008060006101000a81548173ffffffffffffffffffffffffffffffffffffffff021916908373ffffffffffffffffffffffffffffffffffffffff160217905550565b6000809054906101000a900473ffffffffffffffffffffffffffffffffffffffff1673ffffffffffffffffffffffffffffffffffffffff163373ffffffffffffffffffffffffffffffffffffffff16141515610f6c57600080fd5b6000809054906101000a900473ffffffffffffffffffffffffffffffffffffffff1673ffffffffffffffffffffffffffffffffffffffff16ff5b6000809054906101000a900473ffffffffffffffffffffffffffffffffffffffff1681565b6000806001840391506001830390503373ffffffffffffffffffffffffffffffffffffffff1660048381548110151561100057fe5b906000526020600020906004020160020160009054906101000a900473ffffffffffffffffffffffffffffffffffffffff1673ffffffffffffffffffffffffffffffffffffffff1614151561105457600080fd5b600060048381548110151561106557fe5b90600052602060002090600402016001015411151561108357600080fd5b60058181548110151561109257fe5b9060005260206000209060040201600201546004838154811015156110b357fe5b9060005260206000209060040201600301541415156110d157600080fd5b6005818154811015156110e057fe5b906000526020600020906004020160010160009054906101000a900473ffffffffffffffffffffffffffffffffffffffff166006600086815260200190815260200160002060006101000a81548173ffffffffffffffffffffffffffffffffffffffff021916908373ffffffffffffffffffffffffffffffffffffffff1602179055507f56c1c86a49ab7c93c4c9d2f0ca536d058cfa8432cdc4609941af35c35e87979f6006600086815260200190815260200160002060009054906101000a900473ffffffffffffffffffffffffffffffffffffffff16604051808273ffffffffffffffffffffffffffffffffffffffff1673ffffffffffffffffffffffffffffffffffffffff16815260200191505060405180910390a150505050565b60008060001515600760009054906101000a900460ff16151514151561122457600080fd5b6001830391506006600084815260200190815260200160002060009054906101000a900473ffffffffffffffffffffffffffffffffffffffff1673ffffffffffffffffffffffffffffffffffffffff163373ffffffffffffffffffffffffffffffffffffffff1614151561129757600080fd5b60006004838154811015156112a857fe5b9060005260206000209060040201600101541115156112c657600080fd5b6004828154811015156112d557fe5b906000526020600020906004020160010154905060006004838154811015156112fa57fe5b9060005260206000209060040201600101819055506006600084815260200190815260200160002060009054906101000a900473ffffffffffffffffffffffffffffffffffffffff1673ffffffffffffffffffffffffffffffffffffffff166108fc829081150290604051600060405180830381858888f19350505050158015611388573d6000803e3d6000fd5b50505050565b60058181548110151561139d57fe5b9060005260206000209060040201600091509050806000018054600181600116156101000203166002900480601f0160208091040260200160405190810160405280929190818152602001828054600181600116156101000203166002900480156114495780601f1061141e57610100808354040283529160200191611449565b820191906000526020600020905b81548152906001019060200180831161142c57829003601f168201915b5050505050908060010160009054906101000a900473ffffffffffffffffffffffffffffffffffffffff16908060020154908060030154905084565b6000600480549050905080905090565b6004600182038154811015156114a757fe5b906000526020600020906004020160020160009054906101000a900473ffffffffffffffffffffffffffffffffffffffff1673ffffffffffffffffffffffffffffffffffffffff163373ffffffffffffffffffffffffffffffffffffffff1614151561151257600080fd5b600760009054906101000a900460ff1615600760006101000a81548160ff02191690831515021790555050565b606060046001830381548110151561155357fe5b90600052602060002090600402016000018054600181600116156101000203166002900480601f0160208091040260200160405190810160405280929190818152602001828054600181600116156101000203166002900480156115f85780601f106115cd576101008083540402835291602001916115f8565b820191906000526020600020905b8154815290600101906020018083116115db57829003601f168201915b50505050509050809050919050565b60008060018303905060048181548110151561161f57fe5b906000526020600020906004020160020160009054906101000a900473ffffffffffffffffffffffffffffffffffffffff1673ffffffffffffffffffffffffffffffffffffffff163373ffffffffffffffffffffffffffffffffffffffff161415151561168b57600080fd5b60016002540160028190555060056080604051908101604052808681526020013373ffffffffffffffffffffffffffffffffffffffff16815260200185815260200160025481525090806001815401808255809150509060018203906000526020600020906004020160009091929091909150600082015181600001908051906020019061171a929190611959565b5060208201518160010160006101000a81548173ffffffffffffffffffffffffffffffffffffffff021916908373ffffffffffffffffffffffffffffffffffffffff1602179055506040820151816002015560608201518160030155505050600191505092915050565b6000809054906101000a900473ffffffffffffffffffffffffffffffffffffffff1673ffffffffffffffffffffffffffffffffffffffff163373ffffffffffffffffffffffffffffffffffffffff161415156117df57600080fd5b6117e88161185f565b50565b6000809054906101000a900473ffffffffffffffffffffffffffffffffffffffff1673ffffffffffffffffffffffffffffffffffffffff163373ffffffffffffffffffffffffffffffffffffffff1614151561184657600080fd5b8073ffffffffffffffffffffffffffffffffffffffff16ff5b600073ffffffffffffffffffffffffffffffffffffffff168173ffffffffffffffffffffffffffffffffffffffff161415151561189b57600080fd5b8073ffffffffffffffffffffffffffffffffffffffff166000809054906101000a900473ffffffffffffffffffffffffffffffffffffffff1673ffffffffffffffffffffffffffffffffffffffff167f8be0079c531659141344cd1fd0a4f28419497f9722a3daafe3b4186f6b6457e060405160405180910390a3806000806101000a81548173ffffffffffffffffffffffffffffffffffffffff021916908373ffffffffffffffffffffffffffffffffffffffff16021790555050565b828054600181600116156101000203166002900490600052602060002090601f016020900481019282601f1061199a57805160ff19168380011785556119c8565b828001600101855582156119c8579182015b828111156119c75782518255916020019190600101906119ac565b5b5090506119d591906119d9565b5090565b6119fb91905b808211156119f75760008160009055506001016119df565b5090565b905600a165627a7a72305820ede7507644d4b8132594f04940ced5bdeb9da1783781bdb408b414a7f726c52f0029",
  "source": "pragma solidity ^0.4.24;\r\n\r\nimport 'openzeppelin-solidity/contracts/lifecycle/Destructible.sol';\r\n\r\n/// @title Ether Flow\r\n/// @notice Bounty Dapp for Consensys Developer Academy 2018 Final Project\r\n/// @author Ki Chong Tran\r\n/// @dev Contract uses Open Zeppelin library destructible, which is also ownable, to implement the mortal design pattern\r\n\r\ncontract EtherFlow is Destructible {\r\n\r\n    ///@notice Counters to track and identify the requests (requestCount) and flow submissions (flowCount)\r\n    ///@dev Initialize counters to zero\r\n    uint requestCount = 0;\r\n    uint flowCount = 0;\r\n\r\n    ///@notice Reward amount for each request\r\n    ///@dev Reward initialized to zero\r\n    uint reward = 0;\r\n\r\n    ///@notice Events to notify when a new request or flow has been submitted\r\n    ///@dev Users would be notified when there was a new request and the amount of the posted reward\r\n    event LogFlowRequested (uint reward);\r\n    ///@dev Requestors would be notified when their request was responded to\r\n    event LogFlowSubmitted (uint requestCount);\r\n\r\n    ///@notice Structure for each new request containing all the necessary information\r\n    struct request {\r\n        string question;\r\n        uint reward;\r\n        address requestor;\r\n        uint requestCount;\r\n    }\r\n\r\n    ///@dev Stores all the requests in an array\r\n    request[] public requestArray;\r\n\r\n    ///@notice Make a new request by posting a question and sending an ether bounty\r\n    ///@dev Question, reward, requestor address, and request count is stored in the requestArray\r\n    ///@param _question New question being asked\r\n    ///msg.value or amount of reward or bounty, must be greater than 0\r\n    function newFlowRequest(string _question) public payable {\r\n        require (msg.value > 0);\r\n        uint _reward = msg.value;\r\n        emit LogFlowRequested(_reward);\r\n        requestCount = requestCount+1;\r\n        requestArray.push(request({\r\n            question: _question,\r\n            reward: _reward,\r\n            requestor: msg.sender,\r\n            requestCount: requestCount\r\n            }));\r\n        assert(requestArray[requestCount-1].reward >= msg.value);\r\n    }\r\n\r\n    ///@notice Structure for each new flow submission\r\n    struct flow {\r\n        string flow;\r\n        address wordsmith;\r\n        uint requestCount;\r\n        uint flowCount;\r\n    }\r\n\r\n    ///@notice Stores all flows in an array\r\n    flow[] public flowArray;\r\n\r\n    ///@notice Wordsmith can post a new flow in response to a question\r\n    ///@dev Flow, wordsmith address, requestCount identifier, and flowCount is stored in flowArray\r\n    ///@param _flow Lyric, poem, or rap that answers the question of corresponding request\r\n    ///@param _requestCount Number identifier that corresponds to the question being answered\r\n    /// Uint id is used so that requestCount number 1 corresponds to the first element in the array\r\n    ///@return True if flow successfully submitted, false otherwise\r\n    function postNewFlow(string _flow, uint _requestCount) public returns(bool) {\r\n        uint id = _requestCount-1;\r\n        require(msg.sender != requestArray[id].requestor);\r\n        flowCount = flowCount+1;\r\n        flowArray.push(flow({\r\n            flow: _flow,\r\n            wordsmith: msg.sender,\r\n            requestCount: _requestCount,\r\n            flowCount: flowCount\r\n        }));\r\n        return true;\r\n        emit LogFlowSubmitted(_requestCount);\r\n        }\r\n\r\n    ///@notice Maps requestCount identifier to address of the wordsmith that is selected by the requestor\r\n    mapping (uint => address) public chosenWordsmith;\r\n\r\n    ///@notice Wordsmith is notified if selected so they can collect their reward\r\n    event LogWordsmithChosen (address chosenWordsmithAddress);\r\n\r\n    ///@notice Flow requester selects wordsmith that will be able to claim reward\r\n    ///@dev Only the requestor is able to select the winning wordsmith\r\n    /// Uint idR is used so that requestCount number 1 corresponds to the first element in the array and so on\r\n    /// Uint idF is used so that flowCount number 1 corresponds to the first element in the array and so on\r\n    ///@param _flowCount Identifies the flow and wordsmith who submitted the flow\r\n    ///@param _requestCount Identifies the request\r\n    function selectWordsmith(uint _requestCount, uint _flowCount) public {\r\n        uint idR = _requestCount-1;\r\n        uint idF = _flowCount-1;\r\n        require(requestArray[idR].requestor == msg.sender);\r\n        require(requestArray[idR].reward > 0);\r\n        require(requestArray[idR].requestCount == flowArray[idF].requestCount);\r\n        chosenWordsmith[_requestCount] = flowArray[idF].wordsmith;\r\n        emit LogWordsmithChosen(chosenWordsmith[_requestCount]);\r\n    }\r\n\r\n    ///@notice ChosenWordsmith can claim their reward\r\n    ///@dev Only the chosenWordsmith can claim the reward\r\n    /// Reward amount is transfered to the chosenWordsmith and the reward is set to zero\r\n    ///@param _requestCount To identify which request the reward is in\r\n    function claimReward(uint _requestCount) public stopInEmergency {\r\n        uint id = _requestCount-1;\r\n        require(msg.sender == chosenWordsmith[_requestCount]);\r\n        require(requestArray[id].reward > 0);\r\n        uint claimedReward = requestArray[id].reward;\r\n        requestArray[id].reward = 0;\r\n        chosenWordsmith[_requestCount].transfer(claimedReward);\r\n    }\r\n\r\n    ///@notice Event to notify that a request reward has been boosted\r\n    event LogRewardIncreased(uint);\r\n\r\n    ///@notice Boost question reward\r\n    ///@dev Anyone can increase the reward amount of a request by sending in more ether to the request\r\n    ///@param _requestCount Identifies which request to send ether to\r\n    function boostReward(uint _requestCount) public payable stopInEmergency {\r\n        uint id = _requestCount-1;\r\n        require(msg.value > 0);\r\n        requestArray[id].reward += msg.value;\r\n        assert(requestArray[id].reward >= msg.value);\r\n        emit LogRewardIncreased(requestArray[id].reward);\r\n    }\r\n\r\n    ///@notice Sees the reward amount for any request\r\n    ///@param _requestCount Identifies which request to see the reward from\r\n    ///@return rewardAmount\r\n    function seeRewardAmount(uint _requestCount) public view returns(uint rewardAmount) {\r\n      rewardAmount = requestArray[_requestCount-1].reward;\r\n      return rewardAmount;\r\n    }\r\n\r\n    ///@notice Gets the question for any request\r\n    ///@param _requestCount Identifies which request to get the question from\r\n    ///@return question\r\n    function getQuestion(uint _requestCount) public view returns(string question) {\r\n      question = requestArray[_requestCount-1].question;\r\n      return question;\r\n    }\r\n\r\n    ///@notice Gets the requestor address for any request\r\n    ///@param _requestCount Identifies which request to get the requestor address from\r\n    ///@return requestorAddress\r\n    function getRequestor(uint _requestCount) public view returns(address requestorAddress) {\r\n      requestorAddress = requestArray[_requestCount-1].requestor;\r\n      return requestorAddress;\r\n    }\r\n\r\n    ///@notice Gets the chosenWordsmith address for any request\r\n    ///@param _requestCount Identifies which request to get the requestor address from\r\n    ///@return requestorAddress\r\n    function getChosenWordsmith(uint _requestCount) public view returns(address chosenWordsmithAddress) {\r\n      chosenWordsmithAddress = chosenWordsmith[_requestCount];\r\n      return chosenWordsmithAddress;\r\n    }\r\n\r\n    ///@notice Gets the flow and address of a wordsmith\r\n    ///@param _flowCount Identifies which flow to get the flow and address from\r\n    ///@return flowPoem the submitted flow\r\n    ///@return wordsmith the address of the wordsmith\r\n    function getFlowArray(uint _flowCount) public view returns(\r\n      string flowPoem,\r\n      address wordsmith) {\r\n        flowPoem = flowArray[_flowCount-1].flow;\r\n        wordsmith = flowArray[_flowCount-1].wordsmith;\r\n        return (flowPoem, wordsmith);\r\n    }\r\n\r\n    ///@notice Gets the length of the current requestArray for use on UI\r\n    ///@return Uint length of the requestArrray\r\n    function getLength() public view returns(uint length) {\r\n      length = requestArray.length;\r\n      return length;\r\n    }\r\n\r\n    ///Circuit Breaker\r\n    ///@notice Requestor is the account that submits a new question and can activate circuit breaker only for their requests\r\n\r\n    ///@notice circuit breaker is set to off\r\n    bool private stopped = false;\r\n\r\n    ///@notice requestor can only stop movements of rewards for their own Requests\r\n    ///@dev turns on the circuit breaker stopInEmergency\r\n    ///@param _requestCount identifies the request to stop and checks the requestor is also the message sender\r\n    function stopRewardMovements(uint _requestCount) public {\r\n        require(msg.sender == requestArray[_requestCount-1].requestor);\r\n        stopped = !stopped;\r\n    }\r\n\r\n    ///@notice modifier that can pause functions\r\n    modifier stopInEmergency { require(stopped == false); _; }\r\n\r\n}\r\n",
  "sourcePath": "C:\\Users\\User\\documents\\etherflow\\contracts\\EtherFlow.sol",
  "compiler": {
    "name": "solc",
    "version": "0.4.24+commit.e67f0147.Emscripten.clang"
  },
  "schemaVersion": "2.0.0",
  "updatedAt": "2018-08-27T17:28:41.798Z"
}